{"bytecode":"608060405234801561001057600080fd5b50600080546001600160a01b03191633179055611113806100326000396000f3fe6080604052600436106100e85760003560e01c80638aaa7c251161008a578063b9e61c2011610059578063b9e61c2014610284578063d087d288146102b4578063e3ff6189146102c9578063e7572230146102e957600080fd5b80638aaa7c25146101fa5780638da5cb5b1461022e578063affed0e01461024e578063b3de019c1461026457600080fd5b806347899dd8116100c657806347899dd81461016d578063545a153a1461018d5780636b2fafa9146101ad5780636b8ff574146101cd57600080fd5b8063017fe809146100ed57806310ab2570146101205780631a65e28314610158575b600080fd5b3480156100f957600080fd5b5061010d610108366004610ddb565b610309565b6040519081526020015b60405180910390f35b34801561012c57600080fd5b5061014061013b366004610ddb565b61033c565b6040516001600160a01b039091168152602001610117565b61016b610166366004610ddb565b61037a565b005b34801561017957600080fd5b5061016b610188366004610e21565b610575565b34801561019957600080fd5b5061010d6101a8366004610ddb565b6108f0565b3480156101b957600080fd5b5061010d6101c8366004610ddb565b61091e565b3480156101d957600080fd5b506101ed6101e8366004610ddb565b61094c565b6040516101179190610f39565b34801561020657600080fd5b5061021a610215366004610ddb565b610a02565b604051610117989796959493929190610f53565b34801561023a57600080fd5b50600054610140906001600160a01b031681565b34801561025a57600080fd5b5061010d60025481565b34801561027057600080fd5b5061016b61027f366004610fab565b610afb565b34801561029057600080fd5b506102a461029f366004610ddb565b610b85565b6040519015158152602001610117565b3480156102c057600080fd5b5060025461010d565b3480156102d557600080fd5b5061016b6102e4366004610ddb565b610bb7565b3480156102f557600080fd5b5061010d610304366004610ddb565b610c90565b60006001828154811061031e5761031e610fcd565b600091825260209091206001600690920201015461ffff1692915050565b60006001828154811061035157610351610fcd565b60009182526020909120600690910201600301546201000090046001600160a01b031692915050565b6001818154811061038d5761038d610fcd565b600091825260209091206003600690920201015460ff1615156001146103fa5760405162461bcd60e51b815260206004820152601b60248201527f5468697320636f756e747279206973206e6f74206f6e2073616c65000000000060448201526064015b60405180910390fd5b6001818154811061040d5761040d610fcd565b90600052602060002090600602016002015434101561046e5760405162461bcd60e51b815260206004820152601f60248201527f596f7572207265736f75726365732061726520696e73756666696369656e740060448201526064016103f1565b336001828154811061048257610482610fcd565b906000526020600020906006020160030160026101000a8154816001600160a01b0302191690836001600160a01b031602179055506000600182815481106104cc576104cc610fcd565b60009182526020822060069190910201600301805460ff191692151592909217909155600180548390811061050357610503610fcd565b600091825260209091206001600690920201015461ffff161115610572576001818154811061053457610534610fcd565b600091825260208220600160069092020101805461ffff169161055683610ff9565b91906101000a81548161ffff021916908361ffff160217905550505b50565b6000546001600160a01b031633146105e05760405162461bcd60e51b815260206004820152602860248201527f596f7520617265206e6f7420616c6c6f77656420746f20757365207468697320604482015267333ab731ba34b7b760c11b60648201526084016103f1565b6040805161010081018252606080825260006020830181905292820183905281018290526080810182905260a0810182905260c0810182905260e08101919091526001805480820182556000919091528151805183926006027fb10e2d527612073b26eecdfd717e6a320cf44b4afac2b0732d9fcbe2b7fa0cf6019161066b91839160200190610d42565b5060208201516001808301805461ffff90931661ffff1993841617905560408401516002808501919091556060850151600385018054608088015160a08901516001600160a01b0316620100000262010000600160b01b03199115156101000261ff001995151595909516929097169190911792909217919091169390931790925560c0840151600484015560e09093015160059092019190915554815486929190811061071b5761071b610fcd565b9060005260206000209060060201600001908051906020019061073f929190610d42565b506001806002548154811061075657610756610fcd565b906000526020600020906006020160030160006101000a81548160ff0219169083151502179055506001806002548154811061079457610794610fcd565b906000526020600020906006020160030160016101000a81548160ff021916908315150217905550826001600254815481106107d2576107d2610fcd565b906000526020600020906006020160020181905550816001600254815481106107fd576107fd610fcd565b906000526020600020906006020160010160006101000a81548161ffff021916908361ffff160217905550600060016002548154811061083f5761083f610fcd565b906000526020600020906006020160030160026101000a8154816001600160a01b0302191690836001600160a01b0316021790555061087f600254610cbe565b60016002548154811061089457610894610fcd565b9060005260206000209060060201600501819055506002546001600254815481106108c1576108c1610fcd565b6000918252602082206004600690920201019190915560028054916108e583611017565b919050555050505050565b60006001828154811061090557610905610fcd565b9060005260206000209060060201600401549050919050565b60006001828154811061093357610933610fcd565b9060005260206000209060060201600501549050919050565b60606001828154811061096157610961610fcd565b9060005260206000209060060201600001805461097d90611030565b80601f01602080910402602001604051908101604052809291908181526020018280546109a990611030565b80156109f65780601f106109cb576101008083540402835291602001916109f6565b820191906000526020600020905b8154815290600101906020018083116109d957829003601f168201915b50505050509050919050565b60018181548110610a1257600080fd5b9060005260206000209060060201600091509050806000018054610a3590611030565b80601f0160208091040260200160405190810160405280929190818152602001828054610a6190611030565b8015610aae5780601f10610a8357610100808354040283529160200191610aae565b820191906000526020600020905b815481529060010190602001808311610a9157829003601f168201915b505050506001830154600284015460038501546004860154600590960154949561ffff9093169491935060ff80821693610100830490911692620100009092046001600160a01b03169188565b336001600160a01b031660018381548110610b1857610b18610fcd565b60009182526020909120600690910201600301546201000090046001600160a01b031614610b585760405162461bcd60e51b81526004016103f19061106a565b8060018381548110610b6c57610b6c610fcd565b9060005260206000209060060201600201819055505050565b600060018281548110610b9a57610b9a610fcd565b600091825260209091206003600690920201015460ff1692915050565b336001600160a01b031660018281548110610bd457610bd4610fcd565b60009182526020909120600690910201600301546201000090046001600160a01b031614610c145760405162461bcd60e51b81526004016103f19061106a565b60018181548110610c2757610c27610fcd565b600091825260209091206003600690920201015460ff16610c7b576001808281548110610c5657610c56610fcd565b60009182526020909120600690910201600301805460ff191691151591909117905550565b600060018281548110610c5657610c56610fcd565b600060018281548110610ca557610ca5610fcd565b9060005260206000209060060201600201549050919050565b600060018281548110610cd357610cd3610fcd565b9060005260206000209060060201600501546000801b14610cf657610cf66110c7565b6002546040805160208101929092526bffffffffffffffffffffffff193360601b1690820152436054820152607401604051602081830303815290604052805190602001209050919050565b828054610d4e90611030565b90600052602060002090601f016020900481019282610d705760008555610db6565b82601f10610d8957805160ff1916838001178555610db6565b82800160010185558215610db6579182015b82811115610db6578251825591602001919060010190610d9b565b50610dc2929150610dc6565b5090565b5b80821115610dc25760008155600101610dc7565b600060208284031215610ded57600080fd5b5035919050565b634e487b7160e01b600052604160045260246000fd5b803561ffff81168114610e1c57600080fd5b919050565b600080600060608486031215610e3657600080fd5b833567ffffffffffffffff80821115610e4e57600080fd5b818601915086601f830112610e6257600080fd5b813581811115610e7457610e74610df4565b604051601f8201601f19908116603f01168101908382118183101715610e9c57610e9c610df4565b81604052828152896020848701011115610eb557600080fd5b82602086016020830137600060208483010152809750505050505060208401359150610ee360408501610e0a565b90509250925092565b6000815180845260005b81811015610f1257602081850181015186830182015201610ef6565b81811115610f24576000602083870101525b50601f01601f19169290920160200192915050565b602081526000610f4c6020830184610eec565b9392505050565b6000610100808352610f678184018c610eec565b61ffff9a909a16602084015250506040810196909652931515606086015291151560808501526001600160a01b031660a084015260c083015260e090910152919050565b60008060408385031215610fbe57600080fd5b50508035926020909101359150565b634e487b7160e01b600052603260045260246000fd5b634e487b7160e01b600052601160045260246000fd5b600061ffff82168061100d5761100d610fe3565b6000190192915050565b60006001820161102957611029610fe3565b5060010190565b600181811c9082168061104457607f821691505b60208210810361106457634e487b7160e01b600052602260045260246000fd5b50919050565b6020808252603a908201527f596f752068617665206e6f207065726d697373696f6e20746f206368616e676560408201527f20616e79207374617465206f66207468697320636f756e747279000000000000606082015260800190565b634e487b7160e01b600052600160045260246000fdfea2646970667358221220a143c77d751ac37204fbb3ae1930fa76ca02f13706fa9c27c41d6a4f41c64f3f64736f6c634300080d0033","bytecodeSha1":"b855c2e4d4738f6f3ce6030169897fde2e5868c5","type":"contract","abi":[{"inputs":[],"stateMutability":"nonpayable","type":"constructor","name":"constructor"},{"inputs":[{"internalType":"uint256","name":"","type":"uint256"}],"name":"Country","outputs":[{"internalType":"string","name":"name","type":"string"},{"internalType":"uint16","name":"power","type":"uint16"},{"internalType":"uint256","name":"price","type":"uint256"},{"internalType":"bool","name":"on_sale","type":"bool"},{"internalType":"bool","name":"taken","type":"bool"},{"internalType":"address","name":"president","type":"address"},{"internalType":"uint256","name":"country_id","type":"uint256"},{"internalType":"bytes32","name":"hash","type":"bytes32"}],"stateMutability":"view","type":"function"},{"inputs":[{"internalType":"uint256","name":"id","type":"uint256"}],"name":"buyCountry","outputs":[],"stateMutability":"payable","type":"function"},{"inputs":[{"internalType":"uint256","name":"id","type":"uint256"},{"internalType":"uint256","name":"_price","type":"uint256"}],"name":"changePrice","outputs":[],"stateMutability":"nonpayable","type":"function"},{"inputs":[{"internalType":"uint256","name":"id","type":"uint256"}],"name":"getHash","outputs":[{"internalType":"bytes32","name":"","type":"bytes32"}],"stateMutability":"view","type":"function"},{"inputs":[{"internalType":"uint256","name":"id","type":"uint256"}],"name":"getId","outputs":[{"internalType":"uint256","name":"","type":"uint256"}],"stateMutability":"view","type":"function"},{"inputs":[{"internalType":"uint256","name":"id","type":"uint256"}],"name":"getName","outputs":[{"internalType":"string","name":"","type":"string"}],"stateMutability":"view","type":"function"},{"inputs":[],"name":"getNonce","outputs":[{"internalType":"uint256","name":"","type":"uint256"}],"stateMutability":"view","type":"function"},{"inputs":[{"internalType":"uint256","name":"id","type":"uint256"}],"name":"getOnSale","outputs":[{"internalType":"bool","name":"","type":"bool"}],"stateMutability":"view","type":"function"},{"inputs":[{"internalType":"uint256","name":"id","type":"uint256"}],"name":"getPower","outputs":[{"internalType":"uint256","name":"","type":"uint256"}],"stateMutability":"view","type":"function"},{"inputs":[{"internalType":"uint256","name":"id","type":"uint256"}],"name":"getPresident","outputs":[{"internalType":"address","name":"","type":"address"}],"stateMutability":"view","type":"function"},{"inputs":[{"internalType":"uint256","name":"id","type":"uint256"}],"name":"getPrice","outputs":[{"internalType":"uint256","name":"","type":"uint256"}],"stateMutability":"view","type":"function"},{"inputs":[{"internalType":"string","name":"_name","type":"string"},{"internalType":"uint256","name":"_price","type":"uint256"},{"internalType":"uint16","name":"_power","type":"uint16"}],"name":"mintCountry","outputs":[],"stateMutability":"nonpayable","type":"function"},{"inputs":[],"name":"nonce","outputs":[{"internalType":"uint256","name":"","type":"uint256"}],"stateMutability":"view","type":"function"},{"inputs":[],"name":"owner","outputs":[{"internalType":"address","name":"","type":"address"}],"stateMutability":"view","type":"function"},{"inputs":[{"internalType":"uint256","name":"id","type":"uint256"}],"name":"putOnSaleOrOffSale","outputs":[],"stateMutability":"nonpayable","type":"function"}],"compiler":{"version":"0.8.13+commit.abaa5c0e","evm_version":"istanbul","optimizer":{"enabled":true,"runs":200}},"contractName":"Politics","language":"Solidity","natspec":{"methods":{},"kind":"dev","version":1},"opcodes":"PUSH1 0x80 PUSH1 0x40 MSTORE PUSH1 0x4 CALLDATASIZE LT PUSH2 0xE8 JUMPI PUSH1 0x0 CALLDATALOAD PUSH1 0xE0 SHR DUP1 PUSH4 0x8AAA7C25 GT PUSH2 0x8A JUMPI DUP1 PUSH4 0xB9E61C20 GT PUSH2 0x59 JUMPI DUP1 PUSH4 0xB9E61C20 EQ PUSH2 0x284 JUMPI DUP1 PUSH4 0xD087D288 EQ PUSH2 0x2B4 JUMPI DUP1 PUSH4 0xE3FF6189 EQ PUSH2 0x2C9 JUMPI DUP1 PUSH4 0xE7572230 EQ PUSH2 0x2E9 JUMPI PUSH1 0x0 DUP1 REVERT JUMPDEST DUP1 PUSH4 0x8AAA7C25 EQ PUSH2 0x1FA JUMPI DUP1 PUSH4 0x8DA5CB5B EQ PUSH2 0x22E JUMPI DUP1 PUSH4 0xAFFED0E0 EQ PUSH2 0x24E JUMPI DUP1 PUSH4 0xB3DE019C EQ PUSH2 0x264 JUMPI PUSH1 0x0 DUP1 REVERT JUMPDEST DUP1 PUSH4 0x47899DD8 GT PUSH2 0xC6 JUMPI DUP1 PUSH4 0x47899DD8 EQ PUSH2 0x16D JUMPI DUP1 PUSH4 0x545A153A EQ PUSH2 0x18D JUMPI DUP1 PUSH4 0x6B2FAFA9 EQ PUSH2 0x1AD JUMPI DUP1 PUSH4 0x6B8FF574 EQ PUSH2 0x1CD JUMPI PUSH1 0x0 DUP1 REVERT JUMPDEST DUP1 PUSH4 0x17FE809 EQ PUSH2 0xED JUMPI DUP1 PUSH4 0x10AB2570 EQ PUSH2 0x120 JUMPI DUP1 PUSH4 0x1A65E283 EQ PUSH2 0x158 JUMPI JUMPDEST PUSH1 0x0 DUP1 REVERT JUMPDEST CALLVALUE DUP1 ISZERO PUSH2 0xF9 JUMPI PUSH1 0x0 DUP1 REVERT JUMPDEST POP PUSH2 0x10D PUSH2 0x108 CALLDATASIZE PUSH1 0x4 PUSH2 0xDDB JUMP JUMPDEST PUSH2 0x309 JUMP JUMPDEST PUSH1 0x40 MLOAD SWAP1 DUP2 MSTORE PUSH1 0x20 ADD JUMPDEST PUSH1 0x40 MLOAD DUP1 SWAP2 SUB SWAP1 RETURN JUMPDEST CALLVALUE DUP1 ISZERO PUSH2 0x12C JUMPI PUSH1 0x0 DUP1 REVERT JUMPDEST POP PUSH2 0x140 PUSH2 0x13B CALLDATASIZE PUSH1 0x4 PUSH2 0xDDB JUMP JUMPDEST PUSH2 0x33C JUMP JUMPDEST PUSH1 0x40 MLOAD PUSH1 0x1 PUSH1 0x1 PUSH1 0xA0 SHL SUB SWAP1 SWAP2 AND DUP2 MSTORE PUSH1 0x20 ADD PUSH2 0x117 JUMP JUMPDEST PUSH2 0x16B PUSH2 0x166 CALLDATASIZE PUSH1 0x4 PUSH2 0xDDB JUMP JUMPDEST PUSH2 0x37A JUMP JUMPDEST STOP JUMPDEST CALLVALUE DUP1 ISZERO PUSH2 0x179 JUMPI PUSH1 0x0 DUP1 REVERT JUMPDEST POP PUSH2 0x16B PUSH2 0x188 CALLDATASIZE PUSH1 0x4 PUSH2 0xE21 JUMP JUMPDEST PUSH2 0x575 JUMP JUMPDEST CALLVALUE DUP1 ISZERO PUSH2 0x199 JUMPI PUSH1 0x0 DUP1 REVERT JUMPDEST POP PUSH2 0x10D PUSH2 0x1A8 CALLDATASIZE PUSH1 0x4 PUSH2 0xDDB JUMP JUMPDEST PUSH2 0x8F0 JUMP JUMPDEST CALLVALUE DUP1 ISZERO PUSH2 0x1B9 JUMPI PUSH1 0x0 DUP1 REVERT JUMPDEST POP PUSH2 0x10D PUSH2 0x1C8 CALLDATASIZE PUSH1 0x4 PUSH2 0xDDB JUMP JUMPDEST PUSH2 0x91E JUMP JUMPDEST CALLVALUE DUP1 ISZERO PUSH2 0x1D9 JUMPI PUSH1 0x0 DUP1 REVERT JUMPDEST POP PUSH2 0x1ED PUSH2 0x1E8 CALLDATASIZE PUSH1 0x4 PUSH2 0xDDB JUMP JUMPDEST PUSH2 0x94C JUMP JUMPDEST PUSH1 0x40 MLOAD PUSH2 0x117 SWAP2 SWAP1 PUSH2 0xF39 JUMP JUMPDEST CALLVALUE DUP1 ISZERO PUSH2 0x206 JUMPI PUSH1 0x0 DUP1 REVERT JUMPDEST POP PUSH2 0x21A PUSH2 0x215 CALLDATASIZE PUSH1 0x4 PUSH2 0xDDB JUMP JUMPDEST PUSH2 0xA02 JUMP JUMPDEST PUSH1 0x40 MLOAD PUSH2 0x117 SWAP9 SWAP8 SWAP7 SWAP6 SWAP5 SWAP4 SWAP3 SWAP2 SWAP1 PUSH2 0xF53 JUMP JUMPDEST CALLVALUE DUP1 ISZERO PUSH2 0x23A JUMPI PUSH1 0x0 DUP1 REVERT JUMPDEST POP PUSH1 0x0 SLOAD PUSH2 0x140 SWAP1 PUSH1 0x1 PUSH1 0x1 PUSH1 0xA0 SHL SUB AND DUP2 JUMP JUMPDEST CALLVALUE DUP1 ISZERO PUSH2 0x25A JUMPI PUSH1 0x0 DUP1 REVERT JUMPDEST POP PUSH2 0x10D PUSH1 0x2 SLOAD DUP2 JUMP JUMPDEST CALLVALUE DUP1 ISZERO PUSH2 0x270 JUMPI PUSH1 0x0 DUP1 REVERT JUMPDEST POP PUSH2 0x16B PUSH2 0x27F CALLDATASIZE PUSH1 0x4 PUSH2 0xFAB JUMP JUMPDEST PUSH2 0xAFB JUMP JUMPDEST CALLVALUE DUP1 ISZERO PUSH2 0x290 JUMPI PUSH1 0x0 DUP1 REVERT JUMPDEST POP PUSH2 0x2A4 PUSH2 0x29F CALLDATASIZE PUSH1 0x4 PUSH2 0xDDB JUMP JUMPDEST PUSH2 0xB85 JUMP JUMPDEST PUSH1 0x40 MLOAD SWAP1 ISZERO ISZERO DUP2 MSTORE PUSH1 0x20 ADD PUSH2 0x117 JUMP JUMPDEST CALLVALUE DUP1 ISZERO PUSH2 0x2C0 JUMPI PUSH1 0x0 DUP1 REVERT JUMPDEST POP PUSH1 0x2 SLOAD PUSH2 0x10D JUMP JUMPDEST CALLVALUE DUP1 ISZERO PUSH2 0x2D5 JUMPI PUSH1 0x0 DUP1 REVERT JUMPDEST POP PUSH2 0x16B PUSH2 0x2E4 CALLDATASIZE PUSH1 0x4 PUSH2 0xDDB JUMP JUMPDEST PUSH2 0xBB7 JUMP JUMPDEST CALLVALUE DUP1 ISZERO PUSH2 0x2F5 JUMPI PUSH1 0x0 DUP1 REVERT JUMPDEST POP PUSH2 0x10D PUSH2 0x304 CALLDATASIZE PUSH1 0x4 PUSH2 0xDDB JUMP JUMPDEST PUSH2 0xC90 JUMP JUMPDEST PUSH1 0x0 PUSH1 0x1 DUP3 DUP2 SLOAD DUP2 LT PUSH2 0x31E JUMPI PUSH2 0x31E PUSH2 0xFCD JUMP JUMPDEST PUSH1 0x0 SWAP2 DUP3 MSTORE PUSH1 0x20 SWAP1 SWAP2 KECCAK256 PUSH1 0x1 PUSH1 0x6 SWAP1 SWAP3 MUL ADD ADD SLOAD PUSH2 0xFFFF AND SWAP3 SWAP2 POP POP JUMP JUMPDEST PUSH1 0x0 PUSH1 0x1 DUP3 DUP2 SLOAD DUP2 LT PUSH2 0x351 JUMPI PUSH2 0x351 PUSH2 0xFCD JUMP JUMPDEST PUSH1 0x0 SWAP2 DUP3 MSTORE PUSH1 0x20 SWAP1 SWAP2 KECCAK256 PUSH1 0x6 SWAP1 SWAP2 MUL ADD PUSH1 0x3 ADD SLOAD PUSH3 0x10000 SWAP1 DIV PUSH1 0x1 PUSH1 0x1 PUSH1 0xA0 SHL SUB AND SWAP3 SWAP2 POP POP JUMP JUMPDEST PUSH1 0x1 DUP2 DUP2 SLOAD DUP2 LT PUSH2 0x38D JUMPI PUSH2 0x38D PUSH2 0xFCD JUMP JUMPDEST PUSH1 0x0 SWAP2 DUP3 MSTORE PUSH1 0x20 SWAP1 SWAP2 KECCAK256 PUSH1 0x3 PUSH1 0x6 SWAP1 SWAP3 MUL ADD ADD SLOAD PUSH1 0xFF AND ISZERO ISZERO PUSH1 0x1 EQ PUSH2 0x3FA JUMPI PUSH1 0x40 MLOAD PUSH3 0x461BCD PUSH1 0xE5 SHL DUP2 MSTORE PUSH1 0x20 PUSH1 0x4 DUP3 ADD MSTORE PUSH1 0x1B PUSH1 0x24 DUP3 ADD MSTORE PUSH32 0x5468697320636F756E747279206973206E6F74206F6E2073616C650000000000 PUSH1 0x44 DUP3 ADD MSTORE PUSH1 0x64 ADD JUMPDEST PUSH1 0x40 MLOAD DUP1 SWAP2 SUB SWAP1 REVERT JUMPDEST PUSH1 0x1 DUP2 DUP2 SLOAD DUP2 LT PUSH2 0x40D JUMPI PUSH2 0x40D PUSH2 0xFCD JUMP JUMPDEST SWAP1 PUSH1 0x0 MSTORE PUSH1 0x20 PUSH1 0x0 KECCAK256 SWAP1 PUSH1 0x6 MUL ADD PUSH1 0x2 ADD SLOAD CALLVALUE LT ISZERO PUSH2 0x46E JUMPI PUSH1 0x40 MLOAD PUSH3 0x461BCD PUSH1 0xE5 SHL DUP2 MSTORE PUSH1 0x20 PUSH1 0x4 DUP3 ADD MSTORE PUSH1 0x1F PUSH1 0x24 DUP3 ADD MSTORE PUSH32 0x596F7572207265736F75726365732061726520696E73756666696369656E7400 PUSH1 0x44 DUP3 ADD MSTORE PUSH1 0x64 ADD PUSH2 0x3F1 JUMP JUMPDEST CALLER PUSH1 0x1 DUP3 DUP2 SLOAD DUP2 LT PUSH2 0x482 JUMPI PUSH2 0x482 PUSH2 0xFCD JUMP JUMPDEST SWAP1 PUSH1 0x0 MSTORE PUSH1 0x20 PUSH1 0x0 KECCAK256 SWAP1 PUSH1 0x6 MUL ADD PUSH1 0x3 ADD PUSH1 0x2 PUSH2 0x100 EXP DUP2 SLOAD DUP2 PUSH1 0x1 PUSH1 0x1 PUSH1 0xA0 SHL SUB MUL NOT AND SWAP1 DUP4 PUSH1 0x1 PUSH1 0x1 PUSH1 0xA0 SHL SUB AND MUL OR SWAP1 SSTORE POP PUSH1 0x0 PUSH1 0x1 DUP3 DUP2 SLOAD DUP2 LT PUSH2 0x4CC JUMPI PUSH2 0x4CC PUSH2 0xFCD JUMP JUMPDEST PUSH1 0x0 SWAP2 DUP3 MSTORE PUSH1 0x20 DUP3 KECCAK256 PUSH1 0x6 SWAP2 SWAP1 SWAP2 MUL ADD PUSH1 0x3 ADD DUP1 SLOAD PUSH1 0xFF NOT AND SWAP3 ISZERO ISZERO SWAP3 SWAP1 SWAP3 OR SWAP1 SWAP2 SSTORE PUSH1 0x1 DUP1 SLOAD DUP4 SWAP1 DUP2 LT PUSH2 0x503 JUMPI PUSH2 0x503 PUSH2 0xFCD JUMP JUMPDEST PUSH1 0x0 SWAP2 DUP3 MSTORE PUSH1 0x20 SWAP1 SWAP2 KECCAK256 PUSH1 0x1 PUSH1 0x6 SWAP1 SWAP3 MUL ADD ADD SLOAD PUSH2 0xFFFF AND GT ISZERO PUSH2 0x572 JUMPI PUSH1 0x1 DUP2 DUP2 SLOAD DUP2 LT PUSH2 0x534 JUMPI PUSH2 0x534 PUSH2 0xFCD JUMP JUMPDEST PUSH1 0x0 SWAP2 DUP3 MSTORE PUSH1 0x20 DUP3 KECCAK256 PUSH1 0x1 PUSH1 0x6 SWAP1 SWAP3 MUL ADD ADD DUP1 SLOAD PUSH2 0xFFFF AND SWAP2 PUSH2 0x556 DUP4 PUSH2 0xFF9 JUMP JUMPDEST SWAP2 SWAP1 PUSH2 0x100 EXP DUP2 SLOAD DUP2 PUSH2 0xFFFF MUL NOT AND SWAP1 DUP4 PUSH2 0xFFFF AND MUL OR SWAP1 SSTORE POP POP JUMPDEST POP JUMP JUMPDEST PUSH1 0x0 SLOAD PUSH1 0x1 PUSH1 0x1 PUSH1 0xA0 SHL SUB AND CALLER EQ PUSH2 0x5E0 JUMPI PUSH1 0x40 MLOAD PUSH3 0x461BCD PUSH1 0xE5 SHL DUP2 MSTORE PUSH1 0x20 PUSH1 0x4 DUP3 ADD MSTORE PUSH1 0x28 PUSH1 0x24 DUP3 ADD MSTORE PUSH32 0x596F7520617265206E6F7420616C6C6F77656420746F20757365207468697320 PUSH1 0x44 DUP3 ADD MSTORE PUSH8 0x333AB731BA34B7B7 PUSH1 0xC1 SHL PUSH1 0x64 DUP3 ADD MSTORE PUSH1 0x84 ADD PUSH2 0x3F1 JUMP JUMPDEST PUSH1 0x40 DUP1 MLOAD PUSH2 0x100 DUP2 ADD DUP3 MSTORE PUSH1 0x60 DUP1 DUP3 MSTORE PUSH1 0x0 PUSH1 0x20 DUP4 ADD DUP2 SWAP1 MSTORE SWAP3 DUP3 ADD DUP4 SWAP1 MSTORE DUP2 ADD DUP3 SWAP1 MSTORE PUSH1 0x80 DUP2 ADD DUP3 SWAP1 MSTORE PUSH1 0xA0 DUP2 ADD DUP3 SWAP1 MSTORE PUSH1 0xC0 DUP2 ADD DUP3 SWAP1 MSTORE PUSH1 0xE0 DUP2 ADD SWAP2 SWAP1 SWAP2 MSTORE PUSH1 0x1 DUP1 SLOAD DUP1 DUP3 ADD DUP3 SSTORE PUSH1 0x0 SWAP2 SWAP1 SWAP2 MSTORE DUP2 MLOAD DUP1 MLOAD DUP4 SWAP3 PUSH1 0x6 MUL PUSH32 0xB10E2D527612073B26EECDFD717E6A320CF44B4AFAC2B0732D9FCBE2B7FA0CF6 ADD SWAP2 PUSH2 0x66B SWAP2 DUP4 SWAP2 PUSH1 0x20 ADD SWAP1 PUSH2 0xD42 JUMP JUMPDEST POP PUSH1 0x20 DUP3 ADD MLOAD PUSH1 0x1 DUP1 DUP4 ADD DUP1 SLOAD PUSH2 0xFFFF SWAP1 SWAP4 AND PUSH2 0xFFFF NOT SWAP4 DUP5 AND OR SWAP1 SSTORE PUSH1 0x40 DUP5 ADD MLOAD PUSH1 0x2 DUP1 DUP6 ADD SWAP2 SWAP1 SWAP2 SSTORE PUSH1 0x60 DUP6 ADD MLOAD PUSH1 0x3 DUP6 ADD DUP1 SLOAD PUSH1 0x80 DUP9 ADD MLOAD PUSH1 0xA0 DUP10 ADD MLOAD PUSH1 0x1 PUSH1 0x1 PUSH1 0xA0 SHL SUB AND PUSH3 0x10000 MUL PUSH3 0x10000 PUSH1 0x1 PUSH1 0xB0 SHL SUB NOT SWAP2 ISZERO ISZERO PUSH2 0x100 MUL PUSH2 0xFF00 NOT SWAP6 ISZERO ISZERO SWAP6 SWAP1 SWAP6 AND SWAP3 SWAP1 SWAP8 AND SWAP2 SWAP1 SWAP2 OR SWAP3 SWAP1 SWAP3 OR SWAP2 SWAP1 SWAP2 AND SWAP4 SWAP1 SWAP4 OR SWAP1 SWAP3 SSTORE PUSH1 0xC0 DUP5 ADD MLOAD PUSH1 0x4 DUP5 ADD SSTORE PUSH1 0xE0 SWAP1 SWAP4 ADD MLOAD PUSH1 0x5 SWAP1 SWAP3 ADD SWAP2 SWAP1 SWAP2 SSTORE SLOAD DUP2 SLOAD DUP7 SWAP3 SWAP2 SWAP1 DUP2 LT PUSH2 0x71B JUMPI PUSH2 0x71B PUSH2 0xFCD JUMP JUMPDEST SWAP1 PUSH1 0x0 MSTORE PUSH1 0x20 PUSH1 0x0 KECCAK256 SWAP1 PUSH1 0x6 MUL ADD PUSH1 0x0 ADD SWAP1 DUP1 MLOAD SWAP1 PUSH1 0x20 ADD SWAP1 PUSH2 0x73F SWAP3 SWAP2 SWAP1 PUSH2 0xD42 JUMP JUMPDEST POP PUSH1 0x1 DUP1 PUSH1 0x2 SLOAD DUP2 SLOAD DUP2 LT PUSH2 0x756 JUMPI PUSH2 0x756 PUSH2 0xFCD JUMP JUMPDEST SWAP1 PUSH1 0x0 MSTORE PUSH1 0x20 PUSH1 0x0 KECCAK256 SWAP1 PUSH1 0x6 MUL ADD PUSH1 0x3 ADD PUSH1 0x0 PUSH2 0x100 EXP DUP2 SLOAD DUP2 PUSH1 0xFF MUL NOT AND SWAP1 DUP4 ISZERO ISZERO MUL OR SWAP1 SSTORE POP PUSH1 0x1 DUP1 PUSH1 0x2 SLOAD DUP2 SLOAD DUP2 LT PUSH2 0x794 JUMPI PUSH2 0x794 PUSH2 0xFCD JUMP JUMPDEST SWAP1 PUSH1 0x0 MSTORE PUSH1 0x20 PUSH1 0x0 KECCAK256 SWAP1 PUSH1 0x6 MUL ADD PUSH1 0x3 ADD PUSH1 0x1 PUSH2 0x100 EXP DUP2 SLOAD DUP2 PUSH1 0xFF MUL NOT AND SWAP1 DUP4 ISZERO ISZERO MUL OR SWAP1 SSTORE POP DUP3 PUSH1 0x1 PUSH1 0x2 SLOAD DUP2 SLOAD DUP2 LT PUSH2 0x7D2 JUMPI PUSH2 0x7D2 PUSH2 0xFCD JUMP JUMPDEST SWAP1 PUSH1 0x0 MSTORE PUSH1 0x20 PUSH1 0x0 KECCAK256 SWAP1 PUSH1 0x6 MUL ADD PUSH1 0x2 ADD DUP2 SWAP1 SSTORE POP DUP2 PUSH1 0x1 PUSH1 0x2 SLOAD DUP2 SLOAD DUP2 LT PUSH2 0x7FD JUMPI PUSH2 0x7FD PUSH2 0xFCD JUMP JUMPDEST SWAP1 PUSH1 0x0 MSTORE PUSH1 0x20 PUSH1 0x0 KECCAK256 SWAP1 PUSH1 0x6 MUL ADD PUSH1 0x1 ADD PUSH1 0x0 PUSH2 0x100 EXP DUP2 SLOAD DUP2 PUSH2 0xFFFF MUL NOT AND SWAP1 DUP4 PUSH2 0xFFFF AND MUL OR SWAP1 SSTORE POP PUSH1 0x0 PUSH1 0x1 PUSH1 0x2 SLOAD DUP2 SLOAD DUP2 LT PUSH2 0x83F JUMPI PUSH2 0x83F PUSH2 0xFCD JUMP JUMPDEST SWAP1 PUSH1 0x0 MSTORE PUSH1 0x20 PUSH1 0x0 KECCAK256 SWAP1 PUSH1 0x6 MUL ADD PUSH1 0x3 ADD PUSH1 0x2 PUSH2 0x100 EXP DUP2 SLOAD DUP2 PUSH1 0x1 PUSH1 0x1 PUSH1 0xA0 SHL SUB MUL NOT AND SWAP1 DUP4 PUSH1 0x1 PUSH1 0x1 PUSH1 0xA0 SHL SUB AND MUL OR SWAP1 SSTORE POP PUSH2 0x87F PUSH1 0x2 SLOAD PUSH2 0xCBE JUMP JUMPDEST PUSH1 0x1 PUSH1 0x2 SLOAD DUP2 SLOAD DUP2 LT PUSH2 0x894 JUMPI PUSH2 0x894 PUSH2 0xFCD JUMP JUMPDEST SWAP1 PUSH1 0x0 MSTORE PUSH1 0x20 PUSH1 0x0 KECCAK256 SWAP1 PUSH1 0x6 MUL ADD PUSH1 0x5 ADD DUP2 SWAP1 SSTORE POP PUSH1 0x2 SLOAD PUSH1 0x1 PUSH1 0x2 SLOAD DUP2 SLOAD DUP2 LT PUSH2 0x8C1 JUMPI PUSH2 0x8C1 PUSH2 0xFCD JUMP JUMPDEST PUSH1 0x0 SWAP2 DUP3 MSTORE PUSH1 0x20 DUP3 KECCAK256 PUSH1 0x4 PUSH1 0x6 SWAP1 SWAP3 MUL ADD ADD SWAP2 SWAP1 SWAP2 SSTORE PUSH1 0x2 DUP1 SLOAD SWAP2 PUSH2 0x8E5 DUP4 PUSH2 0x1017 JUMP JUMPDEST SWAP2 SWAP1 POP SSTORE POP POP POP POP POP JUMP JUMPDEST PUSH1 0x0 PUSH1 0x1 DUP3 DUP2 SLOAD DUP2 LT PUSH2 0x905 JUMPI PUSH2 0x905 PUSH2 0xFCD JUMP JUMPDEST SWAP1 PUSH1 0x0 MSTORE PUSH1 0x20 PUSH1 0x0 KECCAK256 SWAP1 PUSH1 0x6 MUL ADD PUSH1 0x4 ADD SLOAD SWAP1 POP SWAP2 SWAP1 POP JUMP JUMPDEST PUSH1 0x0 PUSH1 0x1 DUP3 DUP2 SLOAD DUP2 LT PUSH2 0x933 JUMPI PUSH2 0x933 PUSH2 0xFCD JUMP JUMPDEST SWAP1 PUSH1 0x0 MSTORE PUSH1 0x20 PUSH1 0x0 KECCAK256 SWAP1 PUSH1 0x6 MUL ADD PUSH1 0x5 ADD SLOAD SWAP1 POP SWAP2 SWAP1 POP JUMP JUMPDEST PUSH1 0x60 PUSH1 0x1 DUP3 DUP2 SLOAD DUP2 LT PUSH2 0x961 JUMPI PUSH2 0x961 PUSH2 0xFCD JUMP JUMPDEST SWAP1 PUSH1 0x0 MSTORE PUSH1 0x20 PUSH1 0x0 KECCAK256 SWAP1 PUSH1 0x6 MUL ADD PUSH1 0x0 ADD DUP1 SLOAD PUSH2 0x97D SWAP1 PUSH2 0x1030 JUMP JUMPDEST DUP1 PUSH1 0x1F ADD PUSH1 0x20 DUP1 SWAP2 DIV MUL PUSH1 0x20 ADD PUSH1 0x40 MLOAD SWAP1 DUP2 ADD PUSH1 0x40 MSTORE DUP1 SWAP3 SWAP2 SWAP1 DUP2 DUP2 MSTORE PUSH1 0x20 ADD DUP3 DUP1 SLOAD PUSH2 0x9A9 SWAP1 PUSH2 0x1030 JUMP JUMPDEST DUP1 ISZERO PUSH2 0x9F6 JUMPI DUP1 PUSH1 0x1F LT PUSH2 0x9CB JUMPI PUSH2 0x100 DUP1 DUP4 SLOAD DIV MUL DUP4 MSTORE SWAP2 PUSH1 0x20 ADD SWAP2 PUSH2 0x9F6 JUMP JUMPDEST DUP3 ADD SWAP2 SWAP1 PUSH1 0x0 MSTORE PUSH1 0x20 PUSH1 0x0 KECCAK256 SWAP1 JUMPDEST DUP2 SLOAD DUP2 MSTORE SWAP1 PUSH1 0x1 ADD SWAP1 PUSH1 0x20 ADD DUP1 DUP4 GT PUSH2 0x9D9 JUMPI DUP3 SWAP1 SUB PUSH1 0x1F AND DUP3 ADD SWAP2 JUMPDEST POP POP POP POP POP SWAP1 POP SWAP2 SWAP1 POP JUMP JUMPDEST PUSH1 0x1 DUP2 DUP2 SLOAD DUP2 LT PUSH2 0xA12 JUMPI PUSH1 0x0 DUP1 REVERT JUMPDEST SWAP1 PUSH1 0x0 MSTORE PUSH1 0x20 PUSH1 0x0 KECCAK256 SWAP1 PUSH1 0x6 MUL ADD PUSH1 0x0 SWAP2 POP SWAP1 POP DUP1 PUSH1 0x0 ADD DUP1 SLOAD PUSH2 0xA35 SWAP1 PUSH2 0x1030 JUMP JUMPDEST DUP1 PUSH1 0x1F ADD PUSH1 0x20 DUP1 SWAP2 DIV MUL PUSH1 0x20 ADD PUSH1 0x40 MLOAD SWAP1 DUP2 ADD PUSH1 0x40 MSTORE DUP1 SWAP3 SWAP2 SWAP1 DUP2 DUP2 MSTORE PUSH1 0x20 ADD DUP3 DUP1 SLOAD PUSH2 0xA61 SWAP1 PUSH2 0x1030 JUMP JUMPDEST DUP1 ISZERO PUSH2 0xAAE JUMPI DUP1 PUSH1 0x1F LT PUSH2 0xA83 JUMPI PUSH2 0x100 DUP1 DUP4 SLOAD DIV MUL DUP4 MSTORE SWAP2 PUSH1 0x20 ADD SWAP2 PUSH2 0xAAE JUMP JUMPDEST DUP3 ADD SWAP2 SWAP1 PUSH1 0x0 MSTORE PUSH1 0x20 PUSH1 0x0 KECCAK256 SWAP1 JUMPDEST DUP2 SLOAD DUP2 MSTORE SWAP1 PUSH1 0x1 ADD SWAP1 PUSH1 0x20 ADD DUP1 DUP4 GT PUSH2 0xA91 JUMPI DUP3 SWAP1 SUB PUSH1 0x1F AND DUP3 ADD SWAP2 JUMPDEST POP POP POP POP PUSH1 0x1 DUP4 ADD SLOAD PUSH1 0x2 DUP5 ADD SLOAD PUSH1 0x3 DUP6 ADD SLOAD PUSH1 0x4 DUP7 ADD SLOAD PUSH1 0x5 SWAP1 SWAP7 ADD SLOAD SWAP5 SWAP6 PUSH2 0xFFFF SWAP1 SWAP4 AND SWAP5 SWAP2 SWAP4 POP PUSH1 0xFF DUP1 DUP3 AND SWAP4 PUSH2 0x100 DUP4 DIV SWAP1 SWAP2 AND SWAP3 PUSH3 0x10000 SWAP1 SWAP3 DIV PUSH1 0x1 PUSH1 0x1 PUSH1 0xA0 SHL SUB AND SWAP2 DUP9 JUMP JUMPDEST CALLER PUSH1 0x1 PUSH1 0x1 PUSH1 0xA0 SHL SUB AND PUSH1 0x1 DUP4 DUP2 SLOAD DUP2 LT PUSH2 0xB18 JUMPI PUSH2 0xB18 PUSH2 0xFCD JUMP JUMPDEST PUSH1 0x0 SWAP2 DUP3 MSTORE PUSH1 0x20 SWAP1 SWAP2 KECCAK256 PUSH1 0x6 SWAP1 SWAP2 MUL ADD PUSH1 0x3 ADD SLOAD PUSH3 0x10000 SWAP1 DIV PUSH1 0x1 PUSH1 0x1 PUSH1 0xA0 SHL SUB AND EQ PUSH2 0xB58 JUMPI PUSH1 0x40 MLOAD PUSH3 0x461BCD PUSH1 0xE5 SHL DUP2 MSTORE PUSH1 0x4 ADD PUSH2 0x3F1 SWAP1 PUSH2 0x106A JUMP JUMPDEST DUP1 PUSH1 0x1 DUP4 DUP2 SLOAD DUP2 LT PUSH2 0xB6C JUMPI PUSH2 0xB6C PUSH2 0xFCD JUMP JUMPDEST SWAP1 PUSH1 0x0 MSTORE PUSH1 0x20 PUSH1 0x0 KECCAK256 SWAP1 PUSH1 0x6 MUL ADD PUSH1 0x2 ADD DUP2 SWAP1 SSTORE POP POP POP JUMP JUMPDEST PUSH1 0x0 PUSH1 0x1 DUP3 DUP2 SLOAD DUP2 LT PUSH2 0xB9A JUMPI PUSH2 0xB9A PUSH2 0xFCD JUMP JUMPDEST PUSH1 0x0 SWAP2 DUP3 MSTORE PUSH1 0x20 SWAP1 SWAP2 KECCAK256 PUSH1 0x3 PUSH1 0x6 SWAP1 SWAP3 MUL ADD ADD SLOAD PUSH1 0xFF AND SWAP3 SWAP2 POP POP JUMP JUMPDEST CALLER PUSH1 0x1 PUSH1 0x1 PUSH1 0xA0 SHL SUB AND PUSH1 0x1 DUP3 DUP2 SLOAD DUP2 LT PUSH2 0xBD4 JUMPI PUSH2 0xBD4 PUSH2 0xFCD JUMP JUMPDEST PUSH1 0x0 SWAP2 DUP3 MSTORE PUSH1 0x20 SWAP1 SWAP2 KECCAK256 PUSH1 0x6 SWAP1 SWAP2 MUL ADD PUSH1 0x3 ADD SLOAD PUSH3 0x10000 SWAP1 DIV PUSH1 0x1 PUSH1 0x1 PUSH1 0xA0 SHL SUB AND EQ PUSH2 0xC14 JUMPI PUSH1 0x40 MLOAD PUSH3 0x461BCD PUSH1 0xE5 SHL DUP2 MSTORE PUSH1 0x4 ADD PUSH2 0x3F1 SWAP1 PUSH2 0x106A JUMP JUMPDEST PUSH1 0x1 DUP2 DUP2 SLOAD DUP2 LT PUSH2 0xC27 JUMPI PUSH2 0xC27 PUSH2 0xFCD JUMP JUMPDEST PUSH1 0x0 SWAP2 DUP3 MSTORE PUSH1 0x20 SWAP1 SWAP2 KECCAK256 PUSH1 0x3 PUSH1 0x6 SWAP1 SWAP3 MUL ADD ADD SLOAD PUSH1 0xFF AND PUSH2 0xC7B JUMPI PUSH1 0x1 DUP1 DUP3 DUP2 SLOAD DUP2 LT PUSH2 0xC56 JUMPI PUSH2 0xC56 PUSH2 0xFCD JUMP JUMPDEST PUSH1 0x0 SWAP2 DUP3 MSTORE PUSH1 0x20 SWAP1 SWAP2 KECCAK256 PUSH1 0x6 SWAP1 SWAP2 MUL ADD PUSH1 0x3 ADD DUP1 SLOAD PUSH1 0xFF NOT AND SWAP2 ISZERO ISZERO SWAP2 SWAP1 SWAP2 OR SWAP1 SSTORE POP JUMP JUMPDEST PUSH1 0x0 PUSH1 0x1 DUP3 DUP2 SLOAD DUP2 LT PUSH2 0xC56 JUMPI PUSH2 0xC56 PUSH2 0xFCD JUMP JUMPDEST PUSH1 0x0 PUSH1 0x1 DUP3 DUP2 SLOAD DUP2 LT PUSH2 0xCA5 JUMPI PUSH2 0xCA5 PUSH2 0xFCD JUMP JUMPDEST SWAP1 PUSH1 0x0 MSTORE PUSH1 0x20 PUSH1 0x0 KECCAK256 SWAP1 PUSH1 0x6 MUL ADD PUSH1 0x2 ADD SLOAD SWAP1 POP SWAP2 SWAP1 POP JUMP JUMPDEST PUSH1 0x0 PUSH1 0x1 DUP3 DUP2 SLOAD DUP2 LT PUSH2 0xCD3 JUMPI PUSH2 0xCD3 PUSH2 0xFCD JUMP JUMPDEST SWAP1 PUSH1 0x0 MSTORE PUSH1 0x20 PUSH1 0x0 KECCAK256 SWAP1 PUSH1 0x6 MUL ADD PUSH1 0x5 ADD SLOAD PUSH1 0x0 DUP1 SHL EQ PUSH2 0xCF6 JUMPI PUSH2 0xCF6 PUSH2 0x10C7 JUMP JUMPDEST PUSH1 0x2 SLOAD PUSH1 0x40 DUP1 MLOAD PUSH1 0x20 DUP2 ADD SWAP3 SWAP1 SWAP3 MSTORE PUSH12 0xFFFFFFFFFFFFFFFFFFFFFFFF NOT CALLER PUSH1 0x60 SHL AND SWAP1 DUP3 ADD MSTORE NUMBER PUSH1 0x54 DUP3 ADD MSTORE PUSH1 0x74 ADD PUSH1 0x40 MLOAD PUSH1 0x20 DUP2 DUP4 SUB SUB DUP2 MSTORE SWAP1 PUSH1 0x40 MSTORE DUP1 MLOAD SWAP1 PUSH1 0x20 ADD KECCAK256 SWAP1 POP SWAP2 SWAP1 POP JUMP JUMPDEST DUP3 DUP1 SLOAD PUSH2 0xD4E SWAP1 PUSH2 0x1030 JUMP JUMPDEST SWAP1 PUSH1 0x0 MSTORE PUSH1 0x20 PUSH1 0x0 KECCAK256 SWAP1 PUSH1 0x1F ADD PUSH1 0x20 SWAP1 DIV DUP2 ADD SWAP3 DUP3 PUSH2 0xD70 JUMPI PUSH1 0x0 DUP6 SSTORE PUSH2 0xDB6 JUMP JUMPDEST DUP3 PUSH1 0x1F LT PUSH2 0xD89 JUMPI DUP1 MLOAD PUSH1 0xFF NOT AND DUP4 DUP1 ADD OR DUP6 SSTORE PUSH2 0xDB6 JUMP JUMPDEST DUP3 DUP1 ADD PUSH1 0x1 ADD DUP6 SSTORE DUP3 ISZERO PUSH2 0xDB6 JUMPI SWAP2 DUP3 ADD JUMPDEST DUP3 DUP2 GT ISZERO PUSH2 0xDB6 JUMPI DUP3 MLOAD DUP3 SSTORE SWAP2 PUSH1 0x20 ADD SWAP2 SWAP1 PUSH1 0x1 ADD SWAP1 PUSH2 0xD9B JUMP JUMPDEST POP PUSH2 0xDC2 SWAP3 SWAP2 POP PUSH2 0xDC6 JUMP JUMPDEST POP SWAP1 JUMP JUMPDEST JUMPDEST DUP1 DUP3 GT ISZERO PUSH2 0xDC2 JUMPI PUSH1 0x0 DUP2 SSTORE PUSH1 0x1 ADD PUSH2 0xDC7 JUMP JUMPDEST PUSH1 0x0 PUSH1 0x20 DUP3 DUP5 SUB SLT ISZERO PUSH2 0xDED JUMPI PUSH1 0x0 DUP1 REVERT JUMPDEST POP CALLDATALOAD SWAP2 SWAP1 POP JUMP JUMPDEST PUSH4 0x4E487B71 PUSH1 0xE0 SHL PUSH1 0x0 MSTORE PUSH1 0x41 PUSH1 0x4 MSTORE PUSH1 0x24 PUSH1 0x0 REVERT JUMPDEST DUP1 CALLDATALOAD PUSH2 0xFFFF DUP2 AND DUP2 EQ PUSH2 0xE1C JUMPI PUSH1 0x0 DUP1 REVERT JUMPDEST SWAP2 SWAP1 POP JUMP JUMPDEST PUSH1 0x0 DUP1 PUSH1 0x0 PUSH1 0x60 DUP5 DUP7 SUB SLT ISZERO PUSH2 0xE36 JUMPI PUSH1 0x0 DUP1 REVERT JUMPDEST DUP4 CALLDATALOAD PUSH8 0xFFFFFFFFFFFFFFFF DUP1 DUP3 GT ISZERO PUSH2 0xE4E JUMPI PUSH1 0x0 DUP1 REVERT JUMPDEST DUP2 DUP7 ADD SWAP2 POP DUP7 PUSH1 0x1F DUP4 ADD SLT PUSH2 0xE62 JUMPI PUSH1 0x0 DUP1 REVERT JUMPDEST DUP2 CALLDATALOAD DUP2 DUP2 GT ISZERO PUSH2 0xE74 JUMPI PUSH2 0xE74 PUSH2 0xDF4 JUMP JUMPDEST PUSH1 0x40 MLOAD PUSH1 0x1F DUP3 ADD PUSH1 0x1F NOT SWAP1 DUP2 AND PUSH1 0x3F ADD AND DUP2 ADD SWAP1 DUP4 DUP3 GT DUP2 DUP4 LT OR ISZERO PUSH2 0xE9C JUMPI PUSH2 0xE9C PUSH2 0xDF4 JUMP JUMPDEST DUP2 PUSH1 0x40 MSTORE DUP3 DUP2 MSTORE DUP10 PUSH1 0x20 DUP5 DUP8 ADD ADD GT ISZERO PUSH2 0xEB5 JUMPI PUSH1 0x0 DUP1 REVERT JUMPDEST DUP3 PUSH1 0x20 DUP7 ADD PUSH1 0x20 DUP4 ADD CALLDATACOPY PUSH1 0x0 PUSH1 0x20 DUP5 DUP4 ADD ADD MSTORE DUP1 SWAP8 POP POP POP POP POP POP PUSH1 0x20 DUP5 ADD CALLDATALOAD SWAP2 POP PUSH2 0xEE3 PUSH1 0x40 DUP6 ADD PUSH2 0xE0A JUMP JUMPDEST SWAP1 POP SWAP3 POP SWAP3 POP SWAP3 JUMP JUMPDEST PUSH1 0x0 DUP2 MLOAD DUP1 DUP5 MSTORE PUSH1 0x0 JUMPDEST DUP2 DUP2 LT ISZERO PUSH2 0xF12 JUMPI PUSH1 0x20 DUP2 DUP6 ADD DUP2 ADD MLOAD DUP7 DUP4 ADD DUP3 ADD MSTORE ADD PUSH2 0xEF6 JUMP JUMPDEST DUP2 DUP2 GT ISZERO PUSH2 0xF24 JUMPI PUSH1 0x0 PUSH1 0x20 DUP4 DUP8 ADD ADD MSTORE JUMPDEST POP PUSH1 0x1F ADD PUSH1 0x1F NOT AND SWAP3 SWAP1 SWAP3 ADD PUSH1 0x20 ADD SWAP3 SWAP2 POP POP JUMP JUMPDEST PUSH1 0x20 DUP2 MSTORE PUSH1 0x0 PUSH2 0xF4C PUSH1 0x20 DUP4 ADD DUP5 PUSH2 0xEEC JUMP JUMPDEST SWAP4 SWAP3 POP POP POP JUMP JUMPDEST PUSH1 0x0 PUSH2 0x100 DUP1 DUP4 MSTORE PUSH2 0xF67 DUP2 DUP5 ADD DUP13 PUSH2 0xEEC JUMP JUMPDEST PUSH2 0xFFFF SWAP11 SWAP1 SWAP11 AND PUSH1 0x20 DUP5 ADD MSTORE POP POP PUSH1 0x40 DUP2 ADD SWAP7 SWAP1 SWAP7 MSTORE SWAP4 ISZERO ISZERO PUSH1 0x60 DUP7 ADD MSTORE SWAP2 ISZERO ISZERO PUSH1 0x80 DUP6 ADD MSTORE PUSH1 0x1 PUSH1 0x1 PUSH1 0xA0 SHL SUB AND PUSH1 0xA0 DUP5 ADD MSTORE PUSH1 0xC0 DUP4 ADD MSTORE PUSH1 0xE0 SWAP1 SWAP2 ADD MSTORE SWAP2 SWAP1 POP JUMP JUMPDEST PUSH1 0x0 DUP1 PUSH1 0x40 DUP4 DUP6 SUB SLT ISZERO PUSH2 0xFBE JUMPI PUSH1 0x0 DUP1 REVERT JUMPDEST POP POP DUP1 CALLDATALOAD SWAP3 PUSH1 0x20 SWAP1 SWAP2 ADD CALLDATALOAD SWAP2 POP JUMP JUMPDEST PUSH4 0x4E487B71 PUSH1 0xE0 SHL PUSH1 0x0 MSTORE PUSH1 0x32 PUSH1 0x4 MSTORE PUSH1 0x24 PUSH1 0x0 REVERT JUMPDEST PUSH4 0x4E487B71 PUSH1 0xE0 SHL PUSH1 0x0 MSTORE PUSH1 0x11 PUSH1 0x4 MSTORE PUSH1 0x24 PUSH1 0x0 REVERT JUMPDEST PUSH1 0x0 PUSH2 0xFFFF DUP3 AND DUP1 PUSH2 0x100D JUMPI PUSH2 0x100D PUSH2 0xFE3 JUMP JUMPDEST PUSH1 0x0 NOT ADD SWAP3 SWAP2 POP POP JUMP JUMPDEST PUSH1 0x0 PUSH1 0x1 DUP3 ADD PUSH2 0x1029 JUMPI PUSH2 0x1029 PUSH2 0xFE3 JUMP JUMPDEST POP PUSH1 0x1 ADD SWAP1 JUMP JUMPDEST PUSH1 0x1 DUP2 DUP2 SHR SWAP1 DUP3 AND DUP1 PUSH2 0x1044 JUMPI PUSH1 0x7F DUP3 AND SWAP2 POP JUMPDEST PUSH1 0x20 DUP3 LT DUP2 SUB PUSH2 0x1064 JUMPI PUSH4 0x4E487B71 PUSH1 0xE0 SHL PUSH1 0x0 MSTORE PUSH1 0x22 PUSH1 0x4 MSTORE PUSH1 0x24 PUSH1 0x0 REVERT JUMPDEST POP SWAP2 SWAP1 POP JUMP JUMPDEST PUSH1 0x20 DUP1 DUP3 MSTORE PUSH1 0x3A SWAP1 DUP3 ADD MSTORE PUSH32 0x596F752068617665206E6F207065726D697373696F6E20746F206368616E6765 PUSH1 0x40 DUP3 ADD MSTORE PUSH32 0x20616E79207374617465206F66207468697320636F756E747279000000000000 PUSH1 0x60 DUP3 ADD MSTORE PUSH1 0x80 ADD SWAP1 JUMP JUMPDEST PUSH4 0x4E487B71 PUSH1 0xE0 SHL PUSH1 0x0 MSTORE PUSH1 0x1 PUSH1 0x4 MSTORE PUSH1 0x24 PUSH1 0x0 REVERT INVALID LOG2 PUSH5 0x6970667358 0x22 SLT KECCAK256 LOG1 NUMBER 0xC7 PUSH30 0x751AC37204FBB3AE1930FA76CA02F13706FA9C27C41D6A4F41C64F3F6473 PUSH16 0x6C634300080D00330000000000000000 ","sha1":"531b324507964135a6cab0933a88472091f79b64","source":"// SPDX-License-Identifier: MIT\npragma solidity ^0.8.10;\n\ncontract Politics {\n    struct COUNTRY{\n        string name;\n        uint16 power;\n        uint256 price;//in ether/wei\n        bool on_sale;//flag if the country is on sale\n        bool taken;//flag if the country is taken\n        address president;  //fancy name for the owner\n        uint256 country_id;\n        bytes32 hash;\n    }\n    \n\n    address public owner; //owner of the contract\n    COUNTRY[] public Country; //list of countries\n    uint256 public nonce; //actual unique id for country\n    //mapping (address=>COUNTRY[]) ownership; //keeps track of ownerships\n\n    //msg sender becomes the owner\n    constructor(){\n        owner = msg.sender;\n    }\n\n    modifier restricted(){\n        require(msg.sender==owner,\"You are not allowed to use this function\");\n        _;\n    }\n\n    //function to create unique hash\n    function uniqueHash(uint256 _id)internal view returns(bytes32){\n        assert(Country[_id].hash == 0);\n        return keccak256(abi.encodePacked(nonce, msg.sender, block.number));\n    }\n\n    //function to mint new country ready to be bought\n    //Owner passes the name, price and power, rest is default\n    function mintCountry(string memory _name, uint256 _price, uint16 _power)public restricted{\n        COUNTRY memory rand;\n        Country.push(rand);\n\n        //set all values to default, or by parameters\n        Country[nonce].name = _name;\n        Country[nonce].on_sale = true;\n        Country[nonce].taken = true;\n        Country[nonce].price = _price;\n        Country[nonce].power = _power;\n        Country[nonce].president = address(0);\n        Country[nonce].hash  = uniqueHash(nonce);\n        Country[nonce].country_id = nonce;\n        //ownership[address(0)].push(Country[nonce]);\n        //increment nonce so there will not be two identical ID's (helps to hash)\n        nonce++;\n    }\n\n    //hell function to find index of specific country in someone's ownership array\n    /*function findIndexOfCountry(uint256 _id) internal view returns(uint256){\n        for(uint256 i =0; i<0 ;i++){\n            if((Country[i].hash == Country[_id].hash)) return 0;\n        }\n\n    }*/\n\n    //allow users to buy country\n    function buyCountry(uint256 id) external payable{\n        require(Country[id].on_sale==true, \"This country is not on sale\");\n        require(msg.value>=Country[id].price,\"Your resources are insufficient\");\n\n        /*//delete this country from the previous president ownership array\n        delete ownership[Country[id].president][findIndexOfCountry(id)]; \n\n        //add to the new president ownership array\n        ownership[msg.sender].push(Country[id]);\n        */\n        //set new president\n        Country[id].president = msg.sender;\n\n        //when president changes, by default the country will be not on sale\n        Country[id].on_sale = false;\n\n        //After the change of the president, country is a little weaker\n        if(Country[id].power>0)Country[id].power--; \n    }\n    \n    //allow the owner of country(president) to set new price\n    function changePrice(uint256 id, uint256 _price)external{\n        require(Country[id].president==msg.sender, \"You have no permission to change any state of this country\");\n        Country[id].price =_price;\n    }\n\n    //allow the president to choose if they want to put on/off sale their country\n    function putOnSaleOrOffSale(uint256 id)external{\n        require(Country[id].president==msg.sender, \"You have no permission to change any state of this country\");\n        if(!Country[id].on_sale){\n            Country[id].on_sale =true;\n        }\n        else Country[id].on_sale =false;\n    }\n\n    //returns countries owned by... //in progress\n    /*function CountriesOf(address _owner) external view returns ( COUNTRY[] memory){\n        return ownership[_owner];\n    }*/\n    \n    //getters for countries\n    function getPresident(uint256 id)view external returns(address){\n        return Country[id].president;\n    }\n    function getName(uint256 id)view external returns(string memory){\n        return Country[id].name;\n    }\n    function getPrice(uint256 id)view external returns(uint256){\n        return Country[id].price;\n    }\n    function getPower(uint256 id)view external returns(uint256){\n        return Country[id].power;\n    }\n    function getHash(uint256 id)view external returns(bytes32){\n        return Country[id].hash;\n    }\n    function getOnSale(uint256 id)view external returns(bool){\n        return Country[id].on_sale;\n    }\n    function getNonce()view external returns(uint256){\n        return nonce;\n    }\n    function getId(uint256 id)view external returns(uint256){\n        return Country[id].country_id;\n    }\n}","sourcePath":"contracts/Politics.sol","deployment":{"address":"0x4F585ADb9Fa49359f5F903B3A66E401D5C617ab2","chainid":"4","blockHeight":10664239}}