{"abi":[{"inputs":[],"stateMutability":"nonpayable","type":"constructor","name":"constructor"},{"inputs":[{"internalType":"uint256","name":"","type":"uint256"}],"name":"Country","outputs":[{"internalType":"string","name":"name","type":"string"},{"internalType":"uint16","name":"power","type":"uint16"},{"internalType":"uint256","name":"price","type":"uint256"},{"internalType":"bool","name":"on_sale","type":"bool"},{"internalType":"bool","name":"taken","type":"bool"},{"internalType":"address","name":"president","type":"address"},{"internalType":"bytes32","name":"hash","type":"bytes32"}],"stateMutability":"view","type":"function"},{"inputs":[{"internalType":"uint256","name":"id","type":"uint256"}],"name":"buyCountry","outputs":[],"stateMutability":"payable","type":"function"},{"inputs":[{"internalType":"uint256","name":"id","type":"uint256"},{"internalType":"uint256","name":"_price","type":"uint256"}],"name":"changePrice","outputs":[],"stateMutability":"nonpayable","type":"function"},{"inputs":[{"internalType":"uint256","name":"id","type":"uint256"}],"name":"getHash","outputs":[{"internalType":"bytes32","name":"","type":"bytes32"}],"stateMutability":"view","type":"function"},{"inputs":[{"internalType":"uint256","name":"id","type":"uint256"}],"name":"getName","outputs":[{"internalType":"string","name":"","type":"string"}],"stateMutability":"view","type":"function"},{"inputs":[{"internalType":"uint256","name":"id","type":"uint256"}],"name":"getPower","outputs":[{"internalType":"uint256","name":"","type":"uint256"}],"stateMutability":"view","type":"function"},{"inputs":[{"internalType":"uint256","name":"id","type":"uint256"}],"name":"getPresident","outputs":[{"internalType":"address","name":"","type":"address"}],"stateMutability":"view","type":"function"},{"inputs":[{"internalType":"uint256","name":"id","type":"uint256"}],"name":"getPrice","outputs":[{"internalType":"uint256","name":"","type":"uint256"}],"stateMutability":"view","type":"function"},{"inputs":[{"internalType":"string","name":"_name","type":"string"},{"internalType":"uint256","name":"_price","type":"uint256"},{"internalType":"uint16","name":"_power","type":"uint16"}],"name":"mintCountry","outputs":[],"stateMutability":"nonpayable","type":"function"},{"inputs":[],"name":"nonce","outputs":[{"internalType":"uint256","name":"","type":"uint256"}],"stateMutability":"view","type":"function"},{"inputs":[],"name":"owner","outputs":[{"internalType":"address","name":"","type":"address"}],"stateMutability":"view","type":"function"},{"inputs":[{"internalType":"uint256","name":"id","type":"uint256"}],"name":"putOnSaleOrOffSale","outputs":[],"stateMutability":"nonpayable","type":"function"}],"bytecode":"608060405234801561001057600080fd5b50600080546001600160a01b03191633179055610fbf806100326000396000f3fe6080604052600436106100a75760003560e01c80638aaa7c25116100645780638aaa7c25146101995780638da5cb5b146101cc578063affed0e0146101ec578063b3de019c14610202578063e3ff618914610222578063e75722301461024257600080fd5b8063017fe809146100ac57806310ab2570146100df5780631a65e2831461011757806347899dd81461012c5780636b2fafa91461014c5780636b8ff5741461016c575b600080fd5b3480156100b857600080fd5b506100cc6100c7366004610c8e565b610262565b6040519081526020015b60405180910390f35b3480156100eb57600080fd5b506100ff6100fa366004610c8e565b610295565b6040516001600160a01b0390911681526020016100d6565b61012a610125366004610c8e565b6102d3565b005b34801561013857600080fd5b5061012a610147366004610cd4565b6104ce565b34801561015857600080fd5b506100cc610167366004610c8e565b61080a565b34801561017857600080fd5b5061018c610187366004610c8e565b610838565b6040516100d69190610dec565b3480156101a557600080fd5b506101b96101b4366004610c8e565b6108ee565b6040516100d69796959493929190610e06565b3480156101d857600080fd5b506000546100ff906001600160a01b031681565b3480156101f857600080fd5b506100cc60025481565b34801561020e57600080fd5b5061012a61021d366004610e57565b6109e0565b34801561022e57600080fd5b5061012a61023d366004610c8e565b610a6a565b34801561024e57600080fd5b506100cc61025d366004610c8e565b610b43565b60006001828154811061027757610277610e79565b600091825260209091206001600590920201015461ffff1692915050565b6000600182815481106102aa576102aa610e79565b60009182526020909120600590910201600301546201000090046001600160a01b031692915050565b600181815481106102e6576102e6610e79565b600091825260209091206003600590920201015460ff1615156001146103535760405162461bcd60e51b815260206004820152601b60248201527f5468697320636f756e747279206973206e6f74206f6e2073616c65000000000060448201526064015b60405180910390fd5b6001818154811061036657610366610e79565b9060005260206000209060050201600201543410156103c75760405162461bcd60e51b815260206004820152601f60248201527f596f7572207265736f75726365732061726520696e73756666696369656e7400604482015260640161034a565b33600182815481106103db576103db610e79565b906000526020600020906005020160030160026101000a8154816001600160a01b0302191690836001600160a01b0316021790555060006001828154811061042557610425610e79565b60009182526020822060059190910201600301805460ff191692151592909217909155600180548390811061045c5761045c610e79565b600091825260209091206001600590920201015461ffff1611156104cb576001818154811061048d5761048d610e79565b600091825260208220600160059092020101805461ffff16916104af83610ea5565b91906101000a81548161ffff021916908361ffff160217905550505b50565b6000546001600160a01b031633146105395760405162461bcd60e51b815260206004820152602860248201527f596f7520617265206e6f7420616c6c6f77656420746f20757365207468697320604482015267333ab731ba34b7b760c11b606482015260840161034a565b6040805160e081018252606080825260006020830181905292820183905281018290526080810182905260a0810182905260c08101919091526001805480820182556000919091528151805183926005027fb10e2d527612073b26eecdfd717e6a320cf44b4afac2b0732d9fcbe2b7fa0cf601916105bc91839160200190610bf5565b5060208201516001808301805461ffff90931661ffff1993841617905560408401516002808501919091556060850151600385018054608088015160a08901516001600160a01b0316620100000262010000600160b01b03199115156101000261ff001995151595909516929097169190911792909217919091169390931790925560c09093015160049092019190915554815486929190811061066257610662610e79565b90600052602060002090600502016000019080519060200190610686929190610bf5565b506001806002548154811061069d5761069d610e79565b906000526020600020906005020160030160006101000a81548160ff021916908315150217905550600180600254815481106106db576106db610e79565b906000526020600020906005020160030160016101000a81548160ff0219169083151502179055508260016002548154811061071957610719610e79565b9060005260206000209060050201600201819055508160016002548154811061074457610744610e79565b906000526020600020906005020160010160006101000a81548161ffff021916908361ffff160217905550600060016002548154811061078657610786610e79565b906000526020600020906005020160030160026101000a8154816001600160a01b0302191690836001600160a01b031602179055506107c6600254610b71565b6001600254815481106107db576107db610e79565b6000918252602082206004600590920201019190915560028054916107ff83610ec3565b919050555050505050565b60006001828154811061081f5761081f610e79565b9060005260206000209060050201600401549050919050565b60606001828154811061084d5761084d610e79565b9060005260206000209060050201600001805461086990610edc565b80601f016020809104026020016040519081016040528092919081815260200182805461089590610edc565b80156108e25780601f106108b7576101008083540402835291602001916108e2565b820191906000526020600020905b8154815290600101906020018083116108c557829003601f168201915b50505050509050919050565b600181815481106108fe57600080fd5b906000526020600020906005020160009150905080600001805461092190610edc565b80601f016020809104026020016040519081016040528092919081815260200182805461094d90610edc565b801561099a5780601f1061096f5761010080835404028352916020019161099a565b820191906000526020600020905b81548152906001019060200180831161097d57829003601f168201915b505050600184015460028501546003860154600490960154949561ffff9092169490935060ff8083169350610100830416916001600160a01b0362010000909104169087565b336001600160a01b0316600183815481106109fd576109fd610e79565b60009182526020909120600590910201600301546201000090046001600160a01b031614610a3d5760405162461bcd60e51b815260040161034a90610f16565b8060018381548110610a5157610a51610e79565b9060005260206000209060050201600201819055505050565b336001600160a01b031660018281548110610a8757610a87610e79565b60009182526020909120600590910201600301546201000090046001600160a01b031614610ac75760405162461bcd60e51b815260040161034a90610f16565b60018181548110610ada57610ada610e79565b600091825260209091206003600590920201015460ff16610b2e576001808281548110610b0957610b09610e79565b60009182526020909120600590910201600301805460ff191691151591909117905550565b600060018281548110610b0957610b09610e79565b600060018281548110610b5857610b58610e79565b9060005260206000209060050201600201549050919050565b600060018281548110610b8657610b86610e79565b9060005260206000209060050201600401546000801b14610ba957610ba9610f73565b6002546040805160208101929092526bffffffffffffffffffffffff193360601b1690820152436054820152607401604051602081830303815290604052805190602001209050919050565b828054610c0190610edc565b90600052602060002090601f016020900481019282610c235760008555610c69565b82601f10610c3c57805160ff1916838001178555610c69565b82800160010185558215610c69579182015b82811115610c69578251825591602001919060010190610c4e565b50610c75929150610c79565b5090565b5b80821115610c755760008155600101610c7a565b600060208284031215610ca057600080fd5b5035919050565b634e487b7160e01b600052604160045260246000fd5b803561ffff81168114610ccf57600080fd5b919050565b600080600060608486031215610ce957600080fd5b833567ffffffffffffffff80821115610d0157600080fd5b818601915086601f830112610d1557600080fd5b813581811115610d2757610d27610ca7565b604051601f8201601f19908116603f01168101908382118183101715610d4f57610d4f610ca7565b81604052828152896020848701011115610d6857600080fd5b82602086016020830137600060208483010152809750505050505060208401359150610d9660408501610cbd565b90509250925092565b6000815180845260005b81811015610dc557602081850181015186830182015201610da9565b81811115610dd7576000602083870101525b50601f01601f19169290920160200192915050565b602081526000610dff6020830184610d9f565b9392505050565b60e081526000610e1960e083018a610d9f565b61ffff989098166020830152506040810195909552921515606085015290151560808401526001600160a01b031660a083015260c090910152919050565b60008060408385031215610e6a57600080fd5b50508035926020909101359150565b634e487b7160e01b600052603260045260246000fd5b634e487b7160e01b600052601160045260246000fd5b600061ffff821680610eb957610eb9610e8f565b6000190192915050565b600060018201610ed557610ed5610e8f565b5060010190565b600181811c90821680610ef057607f821691505b602082108103610f1057634e487b7160e01b600052602260045260246000fd5b50919050565b6020808252603a908201527f596f752068617665206e6f207065726d697373696f6e20746f206368616e676560408201527f20616e79207374617465206f66207468697320636f756e747279000000000000606082015260800190565b634e487b7160e01b600052600160045260246000fdfea2646970667358221220bfe911afe2b464c72de6f0647416b14d5d5d4f3351e4c943a0de52ebec11b7a664736f6c634300080d0033","bytecodeSha1":"4494337120697102b79dee24f9d45138863004cc","compiler":{"evm_version":"istanbul","optimizer":{"enabled":true,"runs":200},"version":"0.8.13+commit.abaa5c0e"},"contractName":"Politics","language":"Solidity","natspec":{"kind":"dev","methods":{},"version":1},"opcodes":"PUSH1 0x80 PUSH1 0x40 MSTORE PUSH1 0x4 CALLDATASIZE LT PUSH2 0xA7 JUMPI PUSH1 0x0 CALLDATALOAD PUSH1 0xE0 SHR DUP1 PUSH4 0x8AAA7C25 GT PUSH2 0x64 JUMPI DUP1 PUSH4 0x8AAA7C25 EQ PUSH2 0x199 JUMPI DUP1 PUSH4 0x8DA5CB5B EQ PUSH2 0x1CC JUMPI DUP1 PUSH4 0xAFFED0E0 EQ PUSH2 0x1EC JUMPI DUP1 PUSH4 0xB3DE019C EQ PUSH2 0x202 JUMPI DUP1 PUSH4 0xE3FF6189 EQ PUSH2 0x222 JUMPI DUP1 PUSH4 0xE7572230 EQ PUSH2 0x242 JUMPI PUSH1 0x0 DUP1 REVERT JUMPDEST DUP1 PUSH4 0x17FE809 EQ PUSH2 0xAC JUMPI DUP1 PUSH4 0x10AB2570 EQ PUSH2 0xDF JUMPI DUP1 PUSH4 0x1A65E283 EQ PUSH2 0x117 JUMPI DUP1 PUSH4 0x47899DD8 EQ PUSH2 0x12C JUMPI DUP1 PUSH4 0x6B2FAFA9 EQ PUSH2 0x14C JUMPI DUP1 PUSH4 0x6B8FF574 EQ PUSH2 0x16C JUMPI JUMPDEST PUSH1 0x0 DUP1 REVERT JUMPDEST CALLVALUE DUP1 ISZERO PUSH2 0xB8 JUMPI PUSH1 0x0 DUP1 REVERT JUMPDEST POP PUSH2 0xCC PUSH2 0xC7 CALLDATASIZE PUSH1 0x4 PUSH2 0xC8E JUMP JUMPDEST PUSH2 0x262 JUMP JUMPDEST PUSH1 0x40 MLOAD SWAP1 DUP2 MSTORE PUSH1 0x20 ADD JUMPDEST PUSH1 0x40 MLOAD DUP1 SWAP2 SUB SWAP1 RETURN JUMPDEST CALLVALUE DUP1 ISZERO PUSH2 0xEB JUMPI PUSH1 0x0 DUP1 REVERT JUMPDEST POP PUSH2 0xFF PUSH2 0xFA CALLDATASIZE PUSH1 0x4 PUSH2 0xC8E JUMP JUMPDEST PUSH2 0x295 JUMP JUMPDEST PUSH1 0x40 MLOAD PUSH1 0x1 PUSH1 0x1 PUSH1 0xA0 SHL SUB SWAP1 SWAP2 AND DUP2 MSTORE PUSH1 0x20 ADD PUSH2 0xD6 JUMP JUMPDEST PUSH2 0x12A PUSH2 0x125 CALLDATASIZE PUSH1 0x4 PUSH2 0xC8E JUMP JUMPDEST PUSH2 0x2D3 JUMP JUMPDEST STOP JUMPDEST CALLVALUE DUP1 ISZERO PUSH2 0x138 JUMPI PUSH1 0x0 DUP1 REVERT JUMPDEST POP PUSH2 0x12A PUSH2 0x147 CALLDATASIZE PUSH1 0x4 PUSH2 0xCD4 JUMP JUMPDEST PUSH2 0x4CE JUMP JUMPDEST CALLVALUE DUP1 ISZERO PUSH2 0x158 JUMPI PUSH1 0x0 DUP1 REVERT JUMPDEST POP PUSH2 0xCC PUSH2 0x167 CALLDATASIZE PUSH1 0x4 PUSH2 0xC8E JUMP JUMPDEST PUSH2 0x80A JUMP JUMPDEST CALLVALUE DUP1 ISZERO PUSH2 0x178 JUMPI PUSH1 0x0 DUP1 REVERT JUMPDEST POP PUSH2 0x18C PUSH2 0x187 CALLDATASIZE PUSH1 0x4 PUSH2 0xC8E JUMP JUMPDEST PUSH2 0x838 JUMP JUMPDEST PUSH1 0x40 MLOAD PUSH2 0xD6 SWAP2 SWAP1 PUSH2 0xDEC JUMP JUMPDEST CALLVALUE DUP1 ISZERO PUSH2 0x1A5 JUMPI PUSH1 0x0 DUP1 REVERT JUMPDEST POP PUSH2 0x1B9 PUSH2 0x1B4 CALLDATASIZE PUSH1 0x4 PUSH2 0xC8E JUMP JUMPDEST PUSH2 0x8EE JUMP JUMPDEST PUSH1 0x40 MLOAD PUSH2 0xD6 SWAP8 SWAP7 SWAP6 SWAP5 SWAP4 SWAP3 SWAP2 SWAP1 PUSH2 0xE06 JUMP JUMPDEST CALLVALUE DUP1 ISZERO PUSH2 0x1D8 JUMPI PUSH1 0x0 DUP1 REVERT JUMPDEST POP PUSH1 0x0 SLOAD PUSH2 0xFF SWAP1 PUSH1 0x1 PUSH1 0x1 PUSH1 0xA0 SHL SUB AND DUP2 JUMP JUMPDEST CALLVALUE DUP1 ISZERO PUSH2 0x1F8 JUMPI PUSH1 0x0 DUP1 REVERT JUMPDEST POP PUSH2 0xCC PUSH1 0x2 SLOAD DUP2 JUMP JUMPDEST CALLVALUE DUP1 ISZERO PUSH2 0x20E JUMPI PUSH1 0x0 DUP1 REVERT JUMPDEST POP PUSH2 0x12A PUSH2 0x21D CALLDATASIZE PUSH1 0x4 PUSH2 0xE57 JUMP JUMPDEST PUSH2 0x9E0 JUMP JUMPDEST CALLVALUE DUP1 ISZERO PUSH2 0x22E JUMPI PUSH1 0x0 DUP1 REVERT JUMPDEST POP PUSH2 0x12A PUSH2 0x23D CALLDATASIZE PUSH1 0x4 PUSH2 0xC8E JUMP JUMPDEST PUSH2 0xA6A JUMP JUMPDEST CALLVALUE DUP1 ISZERO PUSH2 0x24E JUMPI PUSH1 0x0 DUP1 REVERT JUMPDEST POP PUSH2 0xCC PUSH2 0x25D CALLDATASIZE PUSH1 0x4 PUSH2 0xC8E JUMP JUMPDEST PUSH2 0xB43 JUMP JUMPDEST PUSH1 0x0 PUSH1 0x1 DUP3 DUP2 SLOAD DUP2 LT PUSH2 0x277 JUMPI PUSH2 0x277 PUSH2 0xE79 JUMP JUMPDEST PUSH1 0x0 SWAP2 DUP3 MSTORE PUSH1 0x20 SWAP1 SWAP2 KECCAK256 PUSH1 0x1 PUSH1 0x5 SWAP1 SWAP3 MUL ADD ADD SLOAD PUSH2 0xFFFF AND SWAP3 SWAP2 POP POP JUMP JUMPDEST PUSH1 0x0 PUSH1 0x1 DUP3 DUP2 SLOAD DUP2 LT PUSH2 0x2AA JUMPI PUSH2 0x2AA PUSH2 0xE79 JUMP JUMPDEST PUSH1 0x0 SWAP2 DUP3 MSTORE PUSH1 0x20 SWAP1 SWAP2 KECCAK256 PUSH1 0x5 SWAP1 SWAP2 MUL ADD PUSH1 0x3 ADD SLOAD PUSH3 0x10000 SWAP1 DIV PUSH1 0x1 PUSH1 0x1 PUSH1 0xA0 SHL SUB AND SWAP3 SWAP2 POP POP JUMP JUMPDEST PUSH1 0x1 DUP2 DUP2 SLOAD DUP2 LT PUSH2 0x2E6 JUMPI PUSH2 0x2E6 PUSH2 0xE79 JUMP JUMPDEST PUSH1 0x0 SWAP2 DUP3 MSTORE PUSH1 0x20 SWAP1 SWAP2 KECCAK256 PUSH1 0x3 PUSH1 0x5 SWAP1 SWAP3 MUL ADD ADD SLOAD PUSH1 0xFF AND ISZERO ISZERO PUSH1 0x1 EQ PUSH2 0x353 JUMPI PUSH1 0x40 MLOAD PUSH3 0x461BCD PUSH1 0xE5 SHL DUP2 MSTORE PUSH1 0x20 PUSH1 0x4 DUP3 ADD MSTORE PUSH1 0x1B PUSH1 0x24 DUP3 ADD MSTORE PUSH32 0x5468697320636F756E747279206973206E6F74206F6E2073616C650000000000 PUSH1 0x44 DUP3 ADD MSTORE PUSH1 0x64 ADD JUMPDEST PUSH1 0x40 MLOAD DUP1 SWAP2 SUB SWAP1 REVERT JUMPDEST PUSH1 0x1 DUP2 DUP2 SLOAD DUP2 LT PUSH2 0x366 JUMPI PUSH2 0x366 PUSH2 0xE79 JUMP JUMPDEST SWAP1 PUSH1 0x0 MSTORE PUSH1 0x20 PUSH1 0x0 KECCAK256 SWAP1 PUSH1 0x5 MUL ADD PUSH1 0x2 ADD SLOAD CALLVALUE LT ISZERO PUSH2 0x3C7 JUMPI PUSH1 0x40 MLOAD PUSH3 0x461BCD PUSH1 0xE5 SHL DUP2 MSTORE PUSH1 0x20 PUSH1 0x4 DUP3 ADD MSTORE PUSH1 0x1F PUSH1 0x24 DUP3 ADD MSTORE PUSH32 0x596F7572207265736F75726365732061726520696E73756666696369656E7400 PUSH1 0x44 DUP3 ADD MSTORE PUSH1 0x64 ADD PUSH2 0x34A JUMP JUMPDEST CALLER PUSH1 0x1 DUP3 DUP2 SLOAD DUP2 LT PUSH2 0x3DB JUMPI PUSH2 0x3DB PUSH2 0xE79 JUMP JUMPDEST SWAP1 PUSH1 0x0 MSTORE PUSH1 0x20 PUSH1 0x0 KECCAK256 SWAP1 PUSH1 0x5 MUL ADD PUSH1 0x3 ADD PUSH1 0x2 PUSH2 0x100 EXP DUP2 SLOAD DUP2 PUSH1 0x1 PUSH1 0x1 PUSH1 0xA0 SHL SUB MUL NOT AND SWAP1 DUP4 PUSH1 0x1 PUSH1 0x1 PUSH1 0xA0 SHL SUB AND MUL OR SWAP1 SSTORE POP PUSH1 0x0 PUSH1 0x1 DUP3 DUP2 SLOAD DUP2 LT PUSH2 0x425 JUMPI PUSH2 0x425 PUSH2 0xE79 JUMP JUMPDEST PUSH1 0x0 SWAP2 DUP3 MSTORE PUSH1 0x20 DUP3 KECCAK256 PUSH1 0x5 SWAP2 SWAP1 SWAP2 MUL ADD PUSH1 0x3 ADD DUP1 SLOAD PUSH1 0xFF NOT AND SWAP3 ISZERO ISZERO SWAP3 SWAP1 SWAP3 OR SWAP1 SWAP2 SSTORE PUSH1 0x1 DUP1 SLOAD DUP4 SWAP1 DUP2 LT PUSH2 0x45C JUMPI PUSH2 0x45C PUSH2 0xE79 JUMP JUMPDEST PUSH1 0x0 SWAP2 DUP3 MSTORE PUSH1 0x20 SWAP1 SWAP2 KECCAK256 PUSH1 0x1 PUSH1 0x5 SWAP1 SWAP3 MUL ADD ADD SLOAD PUSH2 0xFFFF AND GT ISZERO PUSH2 0x4CB JUMPI PUSH1 0x1 DUP2 DUP2 SLOAD DUP2 LT PUSH2 0x48D JUMPI PUSH2 0x48D PUSH2 0xE79 JUMP JUMPDEST PUSH1 0x0 SWAP2 DUP3 MSTORE PUSH1 0x20 DUP3 KECCAK256 PUSH1 0x1 PUSH1 0x5 SWAP1 SWAP3 MUL ADD ADD DUP1 SLOAD PUSH2 0xFFFF AND SWAP2 PUSH2 0x4AF DUP4 PUSH2 0xEA5 JUMP JUMPDEST SWAP2 SWAP1 PUSH2 0x100 EXP DUP2 SLOAD DUP2 PUSH2 0xFFFF MUL NOT AND SWAP1 DUP4 PUSH2 0xFFFF AND MUL OR SWAP1 SSTORE POP POP JUMPDEST POP JUMP JUMPDEST PUSH1 0x0 SLOAD PUSH1 0x1 PUSH1 0x1 PUSH1 0xA0 SHL SUB AND CALLER EQ PUSH2 0x539 JUMPI PUSH1 0x40 MLOAD PUSH3 0x461BCD PUSH1 0xE5 SHL DUP2 MSTORE PUSH1 0x20 PUSH1 0x4 DUP3 ADD MSTORE PUSH1 0x28 PUSH1 0x24 DUP3 ADD MSTORE PUSH32 0x596F7520617265206E6F7420616C6C6F77656420746F20757365207468697320 PUSH1 0x44 DUP3 ADD MSTORE PUSH8 0x333AB731BA34B7B7 PUSH1 0xC1 SHL PUSH1 0x64 DUP3 ADD MSTORE PUSH1 0x84 ADD PUSH2 0x34A JUMP JUMPDEST PUSH1 0x40 DUP1 MLOAD PUSH1 0xE0 DUP2 ADD DUP3 MSTORE PUSH1 0x60 DUP1 DUP3 MSTORE PUSH1 0x0 PUSH1 0x20 DUP4 ADD DUP2 SWAP1 MSTORE SWAP3 DUP3 ADD DUP4 SWAP1 MSTORE DUP2 ADD DUP3 SWAP1 MSTORE PUSH1 0x80 DUP2 ADD DUP3 SWAP1 MSTORE PUSH1 0xA0 DUP2 ADD DUP3 SWAP1 MSTORE PUSH1 0xC0 DUP2 ADD SWAP2 SWAP1 SWAP2 MSTORE PUSH1 0x1 DUP1 SLOAD DUP1 DUP3 ADD DUP3 SSTORE PUSH1 0x0 SWAP2 SWAP1 SWAP2 MSTORE DUP2 MLOAD DUP1 MLOAD DUP4 SWAP3 PUSH1 0x5 MUL PUSH32 0xB10E2D527612073B26EECDFD717E6A320CF44B4AFAC2B0732D9FCBE2B7FA0CF6 ADD SWAP2 PUSH2 0x5BC SWAP2 DUP4 SWAP2 PUSH1 0x20 ADD SWAP1 PUSH2 0xBF5 JUMP JUMPDEST POP PUSH1 0x20 DUP3 ADD MLOAD PUSH1 0x1 DUP1 DUP4 ADD DUP1 SLOAD PUSH2 0xFFFF SWAP1 SWAP4 AND PUSH2 0xFFFF NOT SWAP4 DUP5 AND OR SWAP1 SSTORE PUSH1 0x40 DUP5 ADD MLOAD PUSH1 0x2 DUP1 DUP6 ADD SWAP2 SWAP1 SWAP2 SSTORE PUSH1 0x60 DUP6 ADD MLOAD PUSH1 0x3 DUP6 ADD DUP1 SLOAD PUSH1 0x80 DUP9 ADD MLOAD PUSH1 0xA0 DUP10 ADD MLOAD PUSH1 0x1 PUSH1 0x1 PUSH1 0xA0 SHL SUB AND PUSH3 0x10000 MUL PUSH3 0x10000 PUSH1 0x1 PUSH1 0xB0 SHL SUB NOT SWAP2 ISZERO ISZERO PUSH2 0x100 MUL PUSH2 0xFF00 NOT SWAP6 ISZERO ISZERO SWAP6 SWAP1 SWAP6 AND SWAP3 SWAP1 SWAP8 AND SWAP2 SWAP1 SWAP2 OR SWAP3 SWAP1 SWAP3 OR SWAP2 SWAP1 SWAP2 AND SWAP4 SWAP1 SWAP4 OR SWAP1 SWAP3 SSTORE PUSH1 0xC0 SWAP1 SWAP4 ADD MLOAD PUSH1 0x4 SWAP1 SWAP3 ADD SWAP2 SWAP1 SWAP2 SSTORE SLOAD DUP2 SLOAD DUP7 SWAP3 SWAP2 SWAP1 DUP2 LT PUSH2 0x662 JUMPI PUSH2 0x662 PUSH2 0xE79 JUMP JUMPDEST SWAP1 PUSH1 0x0 MSTORE PUSH1 0x20 PUSH1 0x0 KECCAK256 SWAP1 PUSH1 0x5 MUL ADD PUSH1 0x0 ADD SWAP1 DUP1 MLOAD SWAP1 PUSH1 0x20 ADD SWAP1 PUSH2 0x686 SWAP3 SWAP2 SWAP1 PUSH2 0xBF5 JUMP JUMPDEST POP PUSH1 0x1 DUP1 PUSH1 0x2 SLOAD DUP2 SLOAD DUP2 LT PUSH2 0x69D JUMPI PUSH2 0x69D PUSH2 0xE79 JUMP JUMPDEST SWAP1 PUSH1 0x0 MSTORE PUSH1 0x20 PUSH1 0x0 KECCAK256 SWAP1 PUSH1 0x5 MUL ADD PUSH1 0x3 ADD PUSH1 0x0 PUSH2 0x100 EXP DUP2 SLOAD DUP2 PUSH1 0xFF MUL NOT AND SWAP1 DUP4 ISZERO ISZERO MUL OR SWAP1 SSTORE POP PUSH1 0x1 DUP1 PUSH1 0x2 SLOAD DUP2 SLOAD DUP2 LT PUSH2 0x6DB JUMPI PUSH2 0x6DB PUSH2 0xE79 JUMP JUMPDEST SWAP1 PUSH1 0x0 MSTORE PUSH1 0x20 PUSH1 0x0 KECCAK256 SWAP1 PUSH1 0x5 MUL ADD PUSH1 0x3 ADD PUSH1 0x1 PUSH2 0x100 EXP DUP2 SLOAD DUP2 PUSH1 0xFF MUL NOT AND SWAP1 DUP4 ISZERO ISZERO MUL OR SWAP1 SSTORE POP DUP3 PUSH1 0x1 PUSH1 0x2 SLOAD DUP2 SLOAD DUP2 LT PUSH2 0x719 JUMPI PUSH2 0x719 PUSH2 0xE79 JUMP JUMPDEST SWAP1 PUSH1 0x0 MSTORE PUSH1 0x20 PUSH1 0x0 KECCAK256 SWAP1 PUSH1 0x5 MUL ADD PUSH1 0x2 ADD DUP2 SWAP1 SSTORE POP DUP2 PUSH1 0x1 PUSH1 0x2 SLOAD DUP2 SLOAD DUP2 LT PUSH2 0x744 JUMPI PUSH2 0x744 PUSH2 0xE79 JUMP JUMPDEST SWAP1 PUSH1 0x0 MSTORE PUSH1 0x20 PUSH1 0x0 KECCAK256 SWAP1 PUSH1 0x5 MUL ADD PUSH1 0x1 ADD PUSH1 0x0 PUSH2 0x100 EXP DUP2 SLOAD DUP2 PUSH2 0xFFFF MUL NOT AND SWAP1 DUP4 PUSH2 0xFFFF AND MUL OR SWAP1 SSTORE POP PUSH1 0x0 PUSH1 0x1 PUSH1 0x2 SLOAD DUP2 SLOAD DUP2 LT PUSH2 0x786 JUMPI PUSH2 0x786 PUSH2 0xE79 JUMP JUMPDEST SWAP1 PUSH1 0x0 MSTORE PUSH1 0x20 PUSH1 0x0 KECCAK256 SWAP1 PUSH1 0x5 MUL ADD PUSH1 0x3 ADD PUSH1 0x2 PUSH2 0x100 EXP DUP2 SLOAD DUP2 PUSH1 0x1 PUSH1 0x1 PUSH1 0xA0 SHL SUB MUL NOT AND SWAP1 DUP4 PUSH1 0x1 PUSH1 0x1 PUSH1 0xA0 SHL SUB AND MUL OR SWAP1 SSTORE POP PUSH2 0x7C6 PUSH1 0x2 SLOAD PUSH2 0xB71 JUMP JUMPDEST PUSH1 0x1 PUSH1 0x2 SLOAD DUP2 SLOAD DUP2 LT PUSH2 0x7DB JUMPI PUSH2 0x7DB PUSH2 0xE79 JUMP JUMPDEST PUSH1 0x0 SWAP2 DUP3 MSTORE PUSH1 0x20 DUP3 KECCAK256 PUSH1 0x4 PUSH1 0x5 SWAP1 SWAP3 MUL ADD ADD SWAP2 SWAP1 SWAP2 SSTORE PUSH1 0x2 DUP1 SLOAD SWAP2 PUSH2 0x7FF DUP4 PUSH2 0xEC3 JUMP JUMPDEST SWAP2 SWAP1 POP SSTORE POP POP POP POP POP JUMP JUMPDEST PUSH1 0x0 PUSH1 0x1 DUP3 DUP2 SLOAD DUP2 LT PUSH2 0x81F JUMPI PUSH2 0x81F PUSH2 0xE79 JUMP JUMPDEST SWAP1 PUSH1 0x0 MSTORE PUSH1 0x20 PUSH1 0x0 KECCAK256 SWAP1 PUSH1 0x5 MUL ADD PUSH1 0x4 ADD SLOAD SWAP1 POP SWAP2 SWAP1 POP JUMP JUMPDEST PUSH1 0x60 PUSH1 0x1 DUP3 DUP2 SLOAD DUP2 LT PUSH2 0x84D JUMPI PUSH2 0x84D PUSH2 0xE79 JUMP JUMPDEST SWAP1 PUSH1 0x0 MSTORE PUSH1 0x20 PUSH1 0x0 KECCAK256 SWAP1 PUSH1 0x5 MUL ADD PUSH1 0x0 ADD DUP1 SLOAD PUSH2 0x869 SWAP1 PUSH2 0xEDC JUMP JUMPDEST DUP1 PUSH1 0x1F ADD PUSH1 0x20 DUP1 SWAP2 DIV MUL PUSH1 0x20 ADD PUSH1 0x40 MLOAD SWAP1 DUP2 ADD PUSH1 0x40 MSTORE DUP1 SWAP3 SWAP2 SWAP1 DUP2 DUP2 MSTORE PUSH1 0x20 ADD DUP3 DUP1 SLOAD PUSH2 0x895 SWAP1 PUSH2 0xEDC JUMP JUMPDEST DUP1 ISZERO PUSH2 0x8E2 JUMPI DUP1 PUSH1 0x1F LT PUSH2 0x8B7 JUMPI PUSH2 0x100 DUP1 DUP4 SLOAD DIV MUL DUP4 MSTORE SWAP2 PUSH1 0x20 ADD SWAP2 PUSH2 0x8E2 JUMP JUMPDEST DUP3 ADD SWAP2 SWAP1 PUSH1 0x0 MSTORE PUSH1 0x20 PUSH1 0x0 KECCAK256 SWAP1 JUMPDEST DUP2 SLOAD DUP2 MSTORE SWAP1 PUSH1 0x1 ADD SWAP1 PUSH1 0x20 ADD DUP1 DUP4 GT PUSH2 0x8C5 JUMPI DUP3 SWAP1 SUB PUSH1 0x1F AND DUP3 ADD SWAP2 JUMPDEST POP POP POP POP POP SWAP1 POP SWAP2 SWAP1 POP JUMP JUMPDEST PUSH1 0x1 DUP2 DUP2 SLOAD DUP2 LT PUSH2 0x8FE JUMPI PUSH1 0x0 DUP1 REVERT JUMPDEST SWAP1 PUSH1 0x0 MSTORE PUSH1 0x20 PUSH1 0x0 KECCAK256 SWAP1 PUSH1 0x5 MUL ADD PUSH1 0x0 SWAP2 POP SWAP1 POP DUP1 PUSH1 0x0 ADD DUP1 SLOAD PUSH2 0x921 SWAP1 PUSH2 0xEDC JUMP JUMPDEST DUP1 PUSH1 0x1F ADD PUSH1 0x20 DUP1 SWAP2 DIV MUL PUSH1 0x20 ADD PUSH1 0x40 MLOAD SWAP1 DUP2 ADD PUSH1 0x40 MSTORE DUP1 SWAP3 SWAP2 SWAP1 DUP2 DUP2 MSTORE PUSH1 0x20 ADD DUP3 DUP1 SLOAD PUSH2 0x94D SWAP1 PUSH2 0xEDC JUMP JUMPDEST DUP1 ISZERO PUSH2 0x99A JUMPI DUP1 PUSH1 0x1F LT PUSH2 0x96F JUMPI PUSH2 0x100 DUP1 DUP4 SLOAD DIV MUL DUP4 MSTORE SWAP2 PUSH1 0x20 ADD SWAP2 PUSH2 0x99A JUMP JUMPDEST DUP3 ADD SWAP2 SWAP1 PUSH1 0x0 MSTORE PUSH1 0x20 PUSH1 0x0 KECCAK256 SWAP1 JUMPDEST DUP2 SLOAD DUP2 MSTORE SWAP1 PUSH1 0x1 ADD SWAP1 PUSH1 0x20 ADD DUP1 DUP4 GT PUSH2 0x97D JUMPI DUP3 SWAP1 SUB PUSH1 0x1F AND DUP3 ADD SWAP2 JUMPDEST POP POP POP PUSH1 0x1 DUP5 ADD SLOAD PUSH1 0x2 DUP6 ADD SLOAD PUSH1 0x3 DUP7 ADD SLOAD PUSH1 0x4 SWAP1 SWAP7 ADD SLOAD SWAP5 SWAP6 PUSH2 0xFFFF SWAP1 SWAP3 AND SWAP5 SWAP1 SWAP4 POP PUSH1 0xFF DUP1 DUP4 AND SWAP4 POP PUSH2 0x100 DUP4 DIV AND SWAP2 PUSH1 0x1 PUSH1 0x1 PUSH1 0xA0 SHL SUB PUSH3 0x10000 SWAP1 SWAP2 DIV AND SWAP1 DUP8 JUMP JUMPDEST CALLER PUSH1 0x1 PUSH1 0x1 PUSH1 0xA0 SHL SUB AND PUSH1 0x1 DUP4 DUP2 SLOAD DUP2 LT PUSH2 0x9FD JUMPI PUSH2 0x9FD PUSH2 0xE79 JUMP JUMPDEST PUSH1 0x0 SWAP2 DUP3 MSTORE PUSH1 0x20 SWAP1 SWAP2 KECCAK256 PUSH1 0x5 SWAP1 SWAP2 MUL ADD PUSH1 0x3 ADD SLOAD PUSH3 0x10000 SWAP1 DIV PUSH1 0x1 PUSH1 0x1 PUSH1 0xA0 SHL SUB AND EQ PUSH2 0xA3D JUMPI PUSH1 0x40 MLOAD PUSH3 0x461BCD PUSH1 0xE5 SHL DUP2 MSTORE PUSH1 0x4 ADD PUSH2 0x34A SWAP1 PUSH2 0xF16 JUMP JUMPDEST DUP1 PUSH1 0x1 DUP4 DUP2 SLOAD DUP2 LT PUSH2 0xA51 JUMPI PUSH2 0xA51 PUSH2 0xE79 JUMP JUMPDEST SWAP1 PUSH1 0x0 MSTORE PUSH1 0x20 PUSH1 0x0 KECCAK256 SWAP1 PUSH1 0x5 MUL ADD PUSH1 0x2 ADD DUP2 SWAP1 SSTORE POP POP POP JUMP JUMPDEST CALLER PUSH1 0x1 PUSH1 0x1 PUSH1 0xA0 SHL SUB AND PUSH1 0x1 DUP3 DUP2 SLOAD DUP2 LT PUSH2 0xA87 JUMPI PUSH2 0xA87 PUSH2 0xE79 JUMP JUMPDEST PUSH1 0x0 SWAP2 DUP3 MSTORE PUSH1 0x20 SWAP1 SWAP2 KECCAK256 PUSH1 0x5 SWAP1 SWAP2 MUL ADD PUSH1 0x3 ADD SLOAD PUSH3 0x10000 SWAP1 DIV PUSH1 0x1 PUSH1 0x1 PUSH1 0xA0 SHL SUB AND EQ PUSH2 0xAC7 JUMPI PUSH1 0x40 MLOAD PUSH3 0x461BCD PUSH1 0xE5 SHL DUP2 MSTORE PUSH1 0x4 ADD PUSH2 0x34A SWAP1 PUSH2 0xF16 JUMP JUMPDEST PUSH1 0x1 DUP2 DUP2 SLOAD DUP2 LT PUSH2 0xADA JUMPI PUSH2 0xADA PUSH2 0xE79 JUMP JUMPDEST PUSH1 0x0 SWAP2 DUP3 MSTORE PUSH1 0x20 SWAP1 SWAP2 KECCAK256 PUSH1 0x3 PUSH1 0x5 SWAP1 SWAP3 MUL ADD ADD SLOAD PUSH1 0xFF AND PUSH2 0xB2E JUMPI PUSH1 0x1 DUP1 DUP3 DUP2 SLOAD DUP2 LT PUSH2 0xB09 JUMPI PUSH2 0xB09 PUSH2 0xE79 JUMP JUMPDEST PUSH1 0x0 SWAP2 DUP3 MSTORE PUSH1 0x20 SWAP1 SWAP2 KECCAK256 PUSH1 0x5 SWAP1 SWAP2 MUL ADD PUSH1 0x3 ADD DUP1 SLOAD PUSH1 0xFF NOT AND SWAP2 ISZERO ISZERO SWAP2 SWAP1 SWAP2 OR SWAP1 SSTORE POP JUMP JUMPDEST PUSH1 0x0 PUSH1 0x1 DUP3 DUP2 SLOAD DUP2 LT PUSH2 0xB09 JUMPI PUSH2 0xB09 PUSH2 0xE79 JUMP JUMPDEST PUSH1 0x0 PUSH1 0x1 DUP3 DUP2 SLOAD DUP2 LT PUSH2 0xB58 JUMPI PUSH2 0xB58 PUSH2 0xE79 JUMP JUMPDEST SWAP1 PUSH1 0x0 MSTORE PUSH1 0x20 PUSH1 0x0 KECCAK256 SWAP1 PUSH1 0x5 MUL ADD PUSH1 0x2 ADD SLOAD SWAP1 POP SWAP2 SWAP1 POP JUMP JUMPDEST PUSH1 0x0 PUSH1 0x1 DUP3 DUP2 SLOAD DUP2 LT PUSH2 0xB86 JUMPI PUSH2 0xB86 PUSH2 0xE79 JUMP JUMPDEST SWAP1 PUSH1 0x0 MSTORE PUSH1 0x20 PUSH1 0x0 KECCAK256 SWAP1 PUSH1 0x5 MUL ADD PUSH1 0x4 ADD SLOAD PUSH1 0x0 DUP1 SHL EQ PUSH2 0xBA9 JUMPI PUSH2 0xBA9 PUSH2 0xF73 JUMP JUMPDEST PUSH1 0x2 SLOAD PUSH1 0x40 DUP1 MLOAD PUSH1 0x20 DUP2 ADD SWAP3 SWAP1 SWAP3 MSTORE PUSH12 0xFFFFFFFFFFFFFFFFFFFFFFFF NOT CALLER PUSH1 0x60 SHL AND SWAP1 DUP3 ADD MSTORE NUMBER PUSH1 0x54 DUP3 ADD MSTORE PUSH1 0x74 ADD PUSH1 0x40 MLOAD PUSH1 0x20 DUP2 DUP4 SUB SUB DUP2 MSTORE SWAP1 PUSH1 0x40 MSTORE DUP1 MLOAD SWAP1 PUSH1 0x20 ADD KECCAK256 SWAP1 POP SWAP2 SWAP1 POP JUMP JUMPDEST DUP3 DUP1 SLOAD PUSH2 0xC01 SWAP1 PUSH2 0xEDC JUMP JUMPDEST SWAP1 PUSH1 0x0 MSTORE PUSH1 0x20 PUSH1 0x0 KECCAK256 SWAP1 PUSH1 0x1F ADD PUSH1 0x20 SWAP1 DIV DUP2 ADD SWAP3 DUP3 PUSH2 0xC23 JUMPI PUSH1 0x0 DUP6 SSTORE PUSH2 0xC69 JUMP JUMPDEST DUP3 PUSH1 0x1F LT PUSH2 0xC3C JUMPI DUP1 MLOAD PUSH1 0xFF NOT AND DUP4 DUP1 ADD OR DUP6 SSTORE PUSH2 0xC69 JUMP JUMPDEST DUP3 DUP1 ADD PUSH1 0x1 ADD DUP6 SSTORE DUP3 ISZERO PUSH2 0xC69 JUMPI SWAP2 DUP3 ADD JUMPDEST DUP3 DUP2 GT ISZERO PUSH2 0xC69 JUMPI DUP3 MLOAD DUP3 SSTORE SWAP2 PUSH1 0x20 ADD SWAP2 SWAP1 PUSH1 0x1 ADD SWAP1 PUSH2 0xC4E JUMP JUMPDEST POP PUSH2 0xC75 SWAP3 SWAP2 POP PUSH2 0xC79 JUMP JUMPDEST POP SWAP1 JUMP JUMPDEST JUMPDEST DUP1 DUP3 GT ISZERO PUSH2 0xC75 JUMPI PUSH1 0x0 DUP2 SSTORE PUSH1 0x1 ADD PUSH2 0xC7A JUMP JUMPDEST PUSH1 0x0 PUSH1 0x20 DUP3 DUP5 SUB SLT ISZERO PUSH2 0xCA0 JUMPI PUSH1 0x0 DUP1 REVERT JUMPDEST POP CALLDATALOAD SWAP2 SWAP1 POP JUMP JUMPDEST PUSH4 0x4E487B71 PUSH1 0xE0 SHL PUSH1 0x0 MSTORE PUSH1 0x41 PUSH1 0x4 MSTORE PUSH1 0x24 PUSH1 0x0 REVERT JUMPDEST DUP1 CALLDATALOAD PUSH2 0xFFFF DUP2 AND DUP2 EQ PUSH2 0xCCF JUMPI PUSH1 0x0 DUP1 REVERT JUMPDEST SWAP2 SWAP1 POP JUMP JUMPDEST PUSH1 0x0 DUP1 PUSH1 0x0 PUSH1 0x60 DUP5 DUP7 SUB SLT ISZERO PUSH2 0xCE9 JUMPI PUSH1 0x0 DUP1 REVERT JUMPDEST DUP4 CALLDATALOAD PUSH8 0xFFFFFFFFFFFFFFFF DUP1 DUP3 GT ISZERO PUSH2 0xD01 JUMPI PUSH1 0x0 DUP1 REVERT JUMPDEST DUP2 DUP7 ADD SWAP2 POP DUP7 PUSH1 0x1F DUP4 ADD SLT PUSH2 0xD15 JUMPI PUSH1 0x0 DUP1 REVERT JUMPDEST DUP2 CALLDATALOAD DUP2 DUP2 GT ISZERO PUSH2 0xD27 JUMPI PUSH2 0xD27 PUSH2 0xCA7 JUMP JUMPDEST PUSH1 0x40 MLOAD PUSH1 0x1F DUP3 ADD PUSH1 0x1F NOT SWAP1 DUP2 AND PUSH1 0x3F ADD AND DUP2 ADD SWAP1 DUP4 DUP3 GT DUP2 DUP4 LT OR ISZERO PUSH2 0xD4F JUMPI PUSH2 0xD4F PUSH2 0xCA7 JUMP JUMPDEST DUP2 PUSH1 0x40 MSTORE DUP3 DUP2 MSTORE DUP10 PUSH1 0x20 DUP5 DUP8 ADD ADD GT ISZERO PUSH2 0xD68 JUMPI PUSH1 0x0 DUP1 REVERT JUMPDEST DUP3 PUSH1 0x20 DUP7 ADD PUSH1 0x20 DUP4 ADD CALLDATACOPY PUSH1 0x0 PUSH1 0x20 DUP5 DUP4 ADD ADD MSTORE DUP1 SWAP8 POP POP POP POP POP POP PUSH1 0x20 DUP5 ADD CALLDATALOAD SWAP2 POP PUSH2 0xD96 PUSH1 0x40 DUP6 ADD PUSH2 0xCBD JUMP JUMPDEST SWAP1 POP SWAP3 POP SWAP3 POP SWAP3 JUMP JUMPDEST PUSH1 0x0 DUP2 MLOAD DUP1 DUP5 MSTORE PUSH1 0x0 JUMPDEST DUP2 DUP2 LT ISZERO PUSH2 0xDC5 JUMPI PUSH1 0x20 DUP2 DUP6 ADD DUP2 ADD MLOAD DUP7 DUP4 ADD DUP3 ADD MSTORE ADD PUSH2 0xDA9 JUMP JUMPDEST DUP2 DUP2 GT ISZERO PUSH2 0xDD7 JUMPI PUSH1 0x0 PUSH1 0x20 DUP4 DUP8 ADD ADD MSTORE JUMPDEST POP PUSH1 0x1F ADD PUSH1 0x1F NOT AND SWAP3 SWAP1 SWAP3 ADD PUSH1 0x20 ADD SWAP3 SWAP2 POP POP JUMP JUMPDEST PUSH1 0x20 DUP2 MSTORE PUSH1 0x0 PUSH2 0xDFF PUSH1 0x20 DUP4 ADD DUP5 PUSH2 0xD9F JUMP JUMPDEST SWAP4 SWAP3 POP POP POP JUMP JUMPDEST PUSH1 0xE0 DUP2 MSTORE PUSH1 0x0 PUSH2 0xE19 PUSH1 0xE0 DUP4 ADD DUP11 PUSH2 0xD9F JUMP JUMPDEST PUSH2 0xFFFF SWAP9 SWAP1 SWAP9 AND PUSH1 0x20 DUP4 ADD MSTORE POP PUSH1 0x40 DUP2 ADD SWAP6 SWAP1 SWAP6 MSTORE SWAP3 ISZERO ISZERO PUSH1 0x60 DUP6 ADD MSTORE SWAP1 ISZERO ISZERO PUSH1 0x80 DUP5 ADD MSTORE PUSH1 0x1 PUSH1 0x1 PUSH1 0xA0 SHL SUB AND PUSH1 0xA0 DUP4 ADD MSTORE PUSH1 0xC0 SWAP1 SWAP2 ADD MSTORE SWAP2 SWAP1 POP JUMP JUMPDEST PUSH1 0x0 DUP1 PUSH1 0x40 DUP4 DUP6 SUB SLT ISZERO PUSH2 0xE6A JUMPI PUSH1 0x0 DUP1 REVERT JUMPDEST POP POP DUP1 CALLDATALOAD SWAP3 PUSH1 0x20 SWAP1 SWAP2 ADD CALLDATALOAD SWAP2 POP JUMP JUMPDEST PUSH4 0x4E487B71 PUSH1 0xE0 SHL PUSH1 0x0 MSTORE PUSH1 0x32 PUSH1 0x4 MSTORE PUSH1 0x24 PUSH1 0x0 REVERT JUMPDEST PUSH4 0x4E487B71 PUSH1 0xE0 SHL PUSH1 0x0 MSTORE PUSH1 0x11 PUSH1 0x4 MSTORE PUSH1 0x24 PUSH1 0x0 REVERT JUMPDEST PUSH1 0x0 PUSH2 0xFFFF DUP3 AND DUP1 PUSH2 0xEB9 JUMPI PUSH2 0xEB9 PUSH2 0xE8F JUMP JUMPDEST PUSH1 0x0 NOT ADD SWAP3 SWAP2 POP POP JUMP JUMPDEST PUSH1 0x0 PUSH1 0x1 DUP3 ADD PUSH2 0xED5 JUMPI PUSH2 0xED5 PUSH2 0xE8F JUMP JUMPDEST POP PUSH1 0x1 ADD SWAP1 JUMP JUMPDEST PUSH1 0x1 DUP2 DUP2 SHR SWAP1 DUP3 AND DUP1 PUSH2 0xEF0 JUMPI PUSH1 0x7F DUP3 AND SWAP2 POP JUMPDEST PUSH1 0x20 DUP3 LT DUP2 SUB PUSH2 0xF10 JUMPI PUSH4 0x4E487B71 PUSH1 0xE0 SHL PUSH1 0x0 MSTORE PUSH1 0x22 PUSH1 0x4 MSTORE PUSH1 0x24 PUSH1 0x0 REVERT JUMPDEST POP SWAP2 SWAP1 POP JUMP JUMPDEST PUSH1 0x20 DUP1 DUP3 MSTORE PUSH1 0x3A SWAP1 DUP3 ADD MSTORE PUSH32 0x596F752068617665206E6F207065726D697373696F6E20746F206368616E6765 PUSH1 0x40 DUP3 ADD MSTORE PUSH32 0x20616E79207374617465206F66207468697320636F756E747279000000000000 PUSH1 0x60 DUP3 ADD MSTORE PUSH1 0x80 ADD SWAP1 JUMP JUMPDEST PUSH4 0x4E487B71 PUSH1 0xE0 SHL PUSH1 0x0 MSTORE PUSH1 0x1 PUSH1 0x4 MSTORE PUSH1 0x24 PUSH1 0x0 REVERT INVALID LOG2 PUSH5 0x6970667358 0x22 SLT KECCAK256 0xBF 0xE9 GT 0xAF 0xE2 0xB4 PUSH5 0xC72DE6F064 PUSH21 0x16B14D5D5D4F3351E4C943A0DE52EBEC11B7A66473 PUSH16 0x6C634300080D00330000000000000000 ","sha1":"1dea7db227fc1bbc3944ac922ad44c26a3ae3303","source":"// SPDX-License-Identifier: MIT\npragma solidity ^0.8.10;\n\ncontract Politics {\n    struct COUNTRY{\n        string name;\n        uint16 power;\n        uint256 price;//in ether/wei\n        bool on_sale;//flag if the country is on sale\n        bool taken;//flag if the country is taken\n        address president;  //fancy name for the owner\n        bytes32 hash;\n    }\n    \n\n    address public owner; //owner of the contract\n    COUNTRY[] public Country; //list of countries\n    uint256 public nonce; //actual unique id for country\n    //mapping (address=>COUNTRY[]) ownership; //keeps track of ownerships\n\n    //msg sender becomes the owner\n    constructor(){\n        owner = msg.sender;\n    }\n\n    modifier restricted(){\n        require(msg.sender==owner,\"You are not allowed to use this function\");\n        _;\n    }\n\n    //function to create unique hash\n    function uniqueHash(uint256 _id)internal view returns(bytes32){\n        assert(Country[_id].hash == 0);\n        return keccak256(abi.encodePacked(nonce, msg.sender, block.number));\n    }\n\n    //function to mint new country ready to be bought\n    //Owner passes the name, price and power, rest is default\n    function mintCountry(string memory _name, uint256 _price, uint16 _power)public restricted{\n        COUNTRY memory rand;\n        Country.push(rand);\n\n        //set all values to default, or by parameters\n        Country[nonce].name = _name;\n        Country[nonce].on_sale = true;\n        Country[nonce].taken = true;\n        Country[nonce].price = _price;\n        Country[nonce].power = _power;\n        Country[nonce].president = address(0);\n        Country[nonce].hash  = uniqueHash(nonce);\n        \n        //ownership[address(0)].push(Country[nonce]);\n        //increment nonce so there will not be two identical ID's (helps to hash)\n        nonce++;\n    }\n\n    //hell function to find index of specific country in someone's ownership array\n    /*function findIndexOfCountry(uint256 _id) internal view returns(uint256){\n        for(uint256 i =0; i<0 ;i++){\n            if((Country[i].hash == Country[_id].hash)) return 0;\n        }\n\n    }*/\n\n    //allow users to buy country\n    function buyCountry(uint256 id) external payable{\n        require(Country[id].on_sale==true, \"This country is not on sale\");\n        require(msg.value>=Country[id].price,\"Your resources are insufficient\");\n\n        /*//delete this country from the previous president ownership array\n        delete ownership[Country[id].president][findIndexOfCountry(id)]; \n\n        //add to the new president ownership array\n        ownership[msg.sender].push(Country[id]);\n        */\n        //set new president\n        Country[id].president = msg.sender;\n\n        //when president changes, by default the country will be not on sale\n        Country[id].on_sale = false;\n\n        //After the change of the president, country is a little weaker\n        if(Country[id].power>0)Country[id].power--; \n    }\n    \n    //allow the owner of country(president) to set new price\n    function changePrice(uint256 id, uint256 _price)external{\n        require(Country[id].president==msg.sender, \"You have no permission to change any state of this country\");\n        Country[id].price =_price;\n    }\n\n    //allow the president to choose if they want to put on/off sale their country\n    function putOnSaleOrOffSale(uint256 id)external{\n        require(Country[id].president==msg.sender, \"You have no permission to change any state of this country\");\n        if(!Country[id].on_sale){\n            Country[id].on_sale =true;\n        }\n        else Country[id].on_sale =false;\n    }\n\n    //returns countries owned by... //in progress\n    /*function CountriesOf(address _owner) external view returns ( COUNTRY[] memory){\n        return ownership[_owner];\n    }*/\n    \n    //getters for countries\n    function getPresident(uint256 id)view external returns(address){\n        return Country[id].president;\n    }\n    function getName(uint256 id)view external returns(string memory){\n        return Country[id].name;\n    }\n    function getPrice(uint256 id)view external returns(uint256){\n        return Country[id].price;\n    }\n    function getPower(uint256 id)view external returns(uint256){\n        return Country[id].power;\n    }\n    function getHash(uint256 id)view external returns(bytes32){\n        return Country[id].hash;\n    }\n}","sourcePath":"contracts/Politics.sol","type":"contract","deployment":{"address":"0xF4F5dC1799eb552377Ac208e29E8067Bdd45e638","chainid":"4","blockHeight":10624340}}